:0200000280007C
:10000000E02C0720651F0800611F0800611F080021
:10001000611F0800611F0800611F08000000000048
:10002000000000000000000000000000611F080048
:10003000611F080000000000611F0800611F080028
:10004000611F0800611F0800611F0800611F080090
:10005000611F0800611F0800611F0800611F080080
:10006000611F0800611F080000000000D11D08008A
:10007000E51D0800F91D08000D1E08000000000025
:1000800000000000611F0800611F0800611F0800D8
:10009000611F0800611F0800611F0800611F080040
:1000A000611F080000000000611F080079050800BA
:1000B000611F0800611F0800611F0800611F080020
:1000C000611F0800611F0800611F0800611F080010
:1000D000611F0800611F0800611F0800611F080000
:1000E000611F0800611F0800611F0800611F0800F0
:1000F000611F080010B5054C237833B9044B13B1C8
:100100000448AFF300800123237010BD440807208A
:10011000000000000C3D0800084B10B51BB1084959
:100120000848AFF300800848036803B910BD074BC7
:10013000002BFBD0BDE81040184700BF00000000B6
:10014000480807200C3D08000C3D08000000000096
:1001500090B92DE9F0410C469046002A0FDD8F182A
:10016000084E094D306821462B6898470134A74254
:10017000F8D14046BDE8F0814FF0FF3070470020D5
:10018000BDE8F081D00C0720C80C072001380228F8
:1001900015D82DE9F0410E4614469AB10D46DFF808
:1001A00038800C4FD8F8000015F8011B3B689847C1
:1001B00000280ADBA81B013CF4D1BDE8F0814FF018
:1001C000FF3070470020BDE8F0814FF0FF30BDE800
:1001D000F08100BFCC0C0720D00C072030B40124E4
:1001E00004600025456040F20224C0F82041C0F8B8
:1001F0000451C0F8145144685200B1FBF2F14A1E98
:10020000120292B223431A434260284630BC704720
:100210004368090101F010010B434360704700BFC0
:100220004368D201D2B2194311434160704700BF05
:1002300010B44468090601F0706122430A431B07A9
:1002400003F040531343436010BC70470223036024
:10025000704700BF012303FA01F10161704700BF3D
:100260000F299ABF503050F821000020704700BF7E
:10027000006B704710B4AC2303600B684A68B3FB93
:10028000F2F31B095C1E4FF6FE7294420AD8036219
:100290008B68436040F20223C0F820315023036092
:1002A000002000E0012010BC704700BF436913F03C
:1002B000020F1ABFC161002001207047436913F08B
:1002C000010F1DBF83690B7000200120704700BF24
:1002D000436913F0020F1DBFC1F30801C161002083
:1002E00001207047436913F0010F05D08369C3F300
:1002F00008030B60002070470120704710B52220D2
:10030000084B9847084C002201212046074B98478C
:1003100001212046064B984701212046054B98476E
:10032000002010BD0D1F0800008008408D16080039
:10033000A5160800B5160800F8B5044601210948BD
:10034000094B98472A2303FB04F4064F0126074D67
:1003500031463846A847A042FAD301210148044B50
:100360009847F8BD00800840AD160800BD1608008B
:10037000B5160800B1F54D7F20D3A1F54D7240F2BE
:1003800032339A4201D880087047A1F2676240F286
:1003900032339A4201D840087047A1F69A1240F2CF
:1003A00031339A4203D800EB400080087047A1F631
:1003B000CD4140F23133994201D970470020704756
:1003C00008B5B0F52B7F0AD240F634022E4B1A60E6
:1003D00031222E4B1A6008462D4B984708BDA0F5D8
:1003E0002B7240F2A9239A420AD840F21A42264BB5
:1003F0001A603122254B1A600846254B984708BDE4
:10040000A0F2565240F2AA239A420AD840F6340289
:100410001D4B1A6032221D4B1A6008461D4B98472F
:1004200008BDA0F6010240F2AA239A420AD840F27F
:100430001A42154B1A603222144B1A600846154BAB
:10044000984708BDA0F6AC2240F2AA239A420AD8E7
:1004500040F634020C4B1A6033220C4B1A600846EB
:100460000D4B984708BDA0F65753B3F52A7F0AD81D
:1004700040F21A42044B1A603322044B1A600846B9
:10048000054B984708BD08BDD40C0720D80C0720A1
:1004900079080800D1090800290B080008B5B0F553
:1004A0002B7F0AD240F634022E4B1A6031222E4B9B
:1004B0001A6008462D4B984708BDA0F52B7240F2F4
:1004C000A9239A420AD840F21A42264B1A603122D6
:1004D000254B1A600846254B984708BDA0F2565296
:1004E00040F2AA239A420AD840F634021D4B1A6001
:1004F00032221D4B1A6008461D4B984708BDA0F6D6
:10050000010240F2AA239A420AD840F21A42154B3D
:100510001A603222144B1A600846154B984708BDE2
:10052000A0F6AC2240F2AA239A420AD840F634023E
:100530000C4B1A6033220C4B1A6008460D4B98473F
:1005400008BDA0F65753B3F52A7F0AD840F21A42E5
:10055000044B1A603322044B1A600846054B984737
:1005600008BD08BDD40C0720D80C0720890C080052
:1005700011120800791308002DE9F04782B000211C
:100580005448554B98470190019B4FF08062534B64
:100590001A635348534B9847514D534C2846A04734
:1005A00010F0807FFAD00A214D48504B98470446FE
:1005B0004A4BDB6B13F4805F42D0484BDB6B13F488
:1005C000005F3DD040F63402494B1A60002141489B
:1005D000484B98472046484B98470546DFF800812E
:1005E00006214046414FB84701462846434EB04792
:1005F00082462046424B9847054605214046B8476B
:1006000001462846B047054620463E4B984781465E
:1006100004214046B84701464846B0478146204637
:10062000394B9847044603214046B84701462046C7
:10063000B0470AEB050303F500634B441E183DE089
:10064000264BDB6B13F4805F15D0244BDB6B13F46C
:10065000005F10D106212248244B984721462B4B9E
:1006600098470646224B1A6800211A48214B9847A2
:1006700006F5006622E0194BDB6B13F4805F15D1A1
:10068000164BDB6B13F4005F10D006211448174B98
:10069000984721461E4B98470646154B1A6800217D
:1006A0000C48144B984706F5006607E00B4BDB6BD4
:1006B00013F4805F02D1094BDB6B002631461548ED
:1006C000154B98474FF08062044B5A6302B0BDE867
:1006D000F08700BF00000840D516080000100E404B
:1006E00000000C404D020800710208006102080081
:1006F000D40C0720C5160800F10D0800750308008A
:10070000B110080021070800510F0800C1030800BC
:100710009D04080000800C402D1608000000000019
:100720002DE9F843444B9A68DA60596899601A6871
:100730005A6018604FF47A78404C6268A568E560AA
:10074000A2603F4F07FB01F108FB00103D4E86FB06
:100750000013C017C0EBA3103B4B03FB05F340F2A3
:10076000895101FB023386FB0312DB17C3EBA21393
:10077000DFF8FC901844C847344DA8476060344BFC
:100780009A68DA60596899601A685A601860314C42
:100790006268A368E360A26007FB01F108FB001038
:1007A00086FB00E1C017C0EBA1102B4901FB03F34E
:1007B00040F24E2101FB023386FB0312DB17C3EB31
:1007C000A2131844C847A8476060244B9A68DA60AF
:1007D000D3F804E0C3F808E01A685A601860204CA7
:1007E0006268A168E160A26007FB0EF708FB007079
:1007F00086FB0073C017C0EBA3106FF4FE7303FBFE
:1008000001F34FF4697101FB023386FB0326DB170A
:10081000C3EBA6131844134B984705A3D3E9002351
:10082000114EB047114B9847A8476060BDE8F88368
:100830007B14AE47E17AA43F6008072090080720A8
:1008400018FCFFFFD34D6210ECFCFFFF3D2C0800AD
:1008500070080720A00807204CFDFFFF8008072034
:10086000B0080720912408005D25080081290800B0
:10087000952B0800000000002DE9F843444B9A68CE
:10088000DA60596899601A685A6018604FF47A788B
:10089000404C6268A368E360A2603F4F07FB01F130
:1008A00008FB00103D4E86FB0051C017C0EBA110A5
:1008B000A3EB03139B0140F2997101FB023386FB0A
:1008C0000312DB17C3EBA213DFF8FC901844C847F0
:1008D000334DA8476060334B9A68DA605968996075
:1008E0001A685A601860304C6268A368E360A260BE
:1008F00007FB01F108FB001086FB00E1C017C0EB0D
:10090000A1102A4901FB03F340F2B57101FB023348
:1009100086FB0312DB17C3EBA2131844C847A84792
:100920006060234B9A68DA60D3F804E0C3F808E00B
:100930001A685A6018601F4C6268A168E160A26082
:1009400007FB0EF708FB007086FB0073C017C0EBB7
:10095000A310194B03FB01F340F28B7101FB02332F
:1009600086FB0326DB17C3EBA6131844134B9847EB
:1009700005A3D3E90023124EB047124B9847A8476E
:100980006060BDE8F88300BFFCA9F1D24D62703F02
:10099000C0080720F008072018FCFFFFD34D6210A5
:1009A0003D2C0800D0080720000907202EFCFFFF7F
:1009B000E00807201009072055FCFFFF91240800DC
:1009C0005D25080081290800952B08000000000023
:1009D0002DE9F843444B9A68DA60596899601A68BF
:1009E0005A6018604FF47A78404C6268A568E560F8
:1009F000A2603F4F07FB01F108FB00103D4E86FB54
:100A00000013C017C0EBA3103B4B03FB05F340F2F0
:100A1000676101FB023386FB0312DB17C3EBA213F2
:100A2000DFF800911844C847344DA8476060344B44
:100A30009A68DA60596899601A685A601860314C8F
:100A40006268A368E360A26007FB01F108FB001085
:100A500086FB00E1C017C0EBA1102B4901FB03F39B
:100A600040F2397101FB023386FB0312DB17C3EB43
:100A7000A2131844C847A8476060244B9A68DA60FC
:100A8000D3F804E0C3F808E01A685A601860204CF4
:100A90006268A168E160A26007FB0EF708FB0070C6
:100AA00086FB0073C017C0EBA3101A4B03FB01F3C6
:100AB0004FF4D06101FB023386FB0326DB17C3EB47
:100AC000A6131844144B984705A3D3E90023134EEB
:100AD000B047134B9847A8476060BDE8F88300BF54
:100AE000EC51B81E85EB913F2009072050090720E3
:100AF00018FCFFFFD34D6210ADFCFFFF3D2C08003A
:100B000030090720600907206EFCFFFF400907201D
:100B100070090720F9FCFFFF912408005D250800FB
:100B200081290800952B08002DE9F843444B9A6869
:100B3000DA60596899601A685A6018604FF47A78D8
:100B4000404C6268A568E560A2603F4F07FB01F179
:100B500008FB00103D4E86FB0013C017C0EBA3102E
:100B60003B4B03FB05F33B4901FB023386FB0312BE
:100B7000DB17C3EBA213DFF808911844C847364DC2
:100B8000A8476060354B9A68DA60596899601A68BE
:100B90005A601860324C6268A368E360A26007FB89
:100BA00001F108FB001086FB00E1C017C0EBA110AB
:100BB0002C4901FB03F340F2333101FB023386FB86
:100BC0000312DB17C3EBA2131844C847A8476060A1
:100BD000254B9A68DA60D3F804E0C3F808E01A6895
:100BE0005A601860214C6268A168E160A26007FB4E
:100BF0000EF708FB007086FB0073C017C0EBA31054
:100C00001B4B03FB01F35C2101FB023386FB032634
:100C1000DB17C3EBA6131844164B984706A3D3E97A
:100C20000023154EB047154B9847A8476060BDE8B4
:100C3000F88300BFAFF300800AD7A3703D0AB73F27
:100C400080090720B009072018FCFFFFD34D621070
:100C50008CFDFFFF92FDFFFF3D2C0800900907204F
:100C6000C00907207AFDFFFFA0090720D00907204F
:100C7000DEFEFFFF912408005D25080081290800A1
:100C8000952B0800000000002DE9F843484B9A68B6
:100C9000DA605E689E601968596018604FF47A786F
:100CA000444C04FB01F108FB0010434D6A68AB683B
:100CB000EB60AA6008FB0601404F87FB0160C91783
:100CC000C1EBA010A3EB03139B0140F2997101FB50
:100CD000023387FB0312DB17C3EBA213DFF8089183
:100CE0001844C847364EB0476860364A9368D360A8
:100CF0005368936011685160106004FB01F108FBB8
:100D00000010314D6A68D5F808E0C5F80CE0AA601B
:100D100008FB030187FB0130C917C1EBA0102B4B67
:100D200003FB0EF340F2B57101FB023387FB0312A4
:100D3000DB17C3EBA2131844C847B04768602449C7
:100D40008B68CB604A688A600B684B60086004FB64
:100D500003F408FB00431F4D6C68A868E860AC60B2
:100D60001D4901FB00F140F28B7000FB041187FB71
:100D70000140C917C1EBA01008FB023387FB032712
:100D8000DB17C3EBA7131844144B984706A3D3E90A
:100D90000023134CA047134B9847B0476860BDE849
:100DA000F88300BFAFF30080CDCCCCCCCCCCE43FFB
:100DB000E009072038F8FFFF100A0720D34D621022
:100DC0003D2C0800F0090720200A07202EFCFFFF19
:100DD000000A0720300A072055FCFFFF9124080075
:100DE0005D25080081290800952B080000000000FF
:100DF0002DE9F843464B9A68DA60596899601A6899
:100E00005A6018604FF47A78424E7268B368F360A3
:100E1000B260414F07FB01F108FB00103F4C84FB1F
:100E20000051C017C0EBA110C3EBC30303EBC31306
:100E30005B4240F2197101FB023384FB0312DB17A2
:100E4000C3EBA213DFF800911844C847344DA847FC
:100E50007060344B9A68DA605A689A601968596011
:100E60001860314ED6F804E0CEEB0E11B368F36093
:100E7000C6F808E007FB02F208FB002084FB00E252
:100E8000C017C0EBA210294A02FB03F303EBC11306
:100E900084FB0312DB17C3EBA2131844C847A8470F
:100EA0007060234B9A68DA60D3F804E0C3F808E076
:100EB0001A685A6018601F4E7268B168F160B260BB
:100EC00007FB0EF708FB007084FB0073C017C0EB34
:100ED000A310194B03FB01F34FF4E26101FB023352
:100EE00084FB0324DB17C3EBA4131844134B98476C
:100EF00005A3D3E90023124CA047124B9847A847FB
:100F00007060BDE8F88300BF7B14AE47E17A843F90
:100F1000400A0720700A072018FCFFFFD34D62101B
:100F20003D2C0800500A0720800A07204EFCFFFFD6
:100F3000600A0720900A0720AAFCFFFF91240800FE
:100F40005D25080081290800952B0800000000009D
:100F50002DE9F843464B9A68DA60596899601A6837
:100F60005A6018604FF47A78424C6268A568E56070
:100F7000A260414F07FB01F108FB00103F4E86FBCA
:100F80000013C017C0EBA3103D4B03FB05F33D4915
:100F900001FB023386FB0312DB17C3EBA213DFF85E
:100FA0000C911844C847384DA8476060374B9A6881
:100FB000DA60D3F804E0C3F808E01A685A601860F1
:100FC000334C6168A268E260A16007FB0EFE08FB7B
:100FD00000E086FB00E3C017C0EBA310C2EBC253D6
:100FE000C2EB431212014FF4C67303FB012386FBCD
:100FF0000312DB17C3EBA2131844C847A84760606D
:10100000244B9A68DA60D3F804E0C3F808E01A6861
:101010005A601860204C6268A168E160A26007FB1A
:101020000EF708FB007086FB0073C017C0EBA3101F
:101030006FF09D0303FB01F3184901FB023386FBAC
:101040000326DB17C3EBA6131844154B984706A3DA
:10105000D3E90023134EB047134B9847A84760606D
:10106000BDE8F883AFF300809A9999999999B93FAF
:10107000A00A0720D00A072018FCFFFFD34D6210FA
:1010800060FDFFFFD8FAFFFF3D2C0800B00A0720E3
:10109000E00A0720C00A0720F00A072046FEFFFFEB
:1010A000912408005D25080081290800952B08007F
:1010B0002DE9F843464B9A68DA60596899601A68D6
:1010C0005A6018604FF47A78424E7268B568F560DD
:1010D000B260414F07FB01F108FB00103F4C84FB5D
:1010E0000013C017C0EBA3103D4B03FB05F340F208
:1010F000D95101FB023384FB0312DB17C3EBA213AC
:10110000DFF804911844C847364DA8477060364B45
:101110009A68DA60596899601A685A601860334EA4
:10112000D6F804E0CEEBCE030EEB0323B268F260F8
:10113000C6F808E007FB01F108FB001084FB00E1A2
:10114000C017C0EBA1106FF45F7101FB023384FB89
:101150000312DB17C3EBA2131844C847A8477060FB
:10116000234B9A68DA60D3F804E0C3F808E01A6801
:101170005A6018601F4E7268B168F160B26007FB78
:101180000EF708FB007084FB0073C017C0EBA310C0
:10119000194B03FB01F340F2156101FB023384FBA1
:1011A0000324DB17C3EBA4131844144B984706A37E
:1011B000D3E90023124CA047124B9847A847706010
:1011C000BDE8F883AFF30080DBF97E6ABC74933F1F
:1011D000000B0720300B072018FCFFFFD34D6210D7
:1011E000CDFCFFFF3D2C0800100B0720400B072013
:1011F000200B0720500B07202AFDFFFF9124080039
:101200005D25080081290800952B080000000000DA
:101210002DE9F843484B9A68DA605E689E60196869
:10122000596018604FF47A78444C04FB01F108FBD4
:101230000010434D6A68D5F808E0C5F80CE0AA60D4
:1012400008FB06013F4F87FB0130C917C1EBA01017
:101250003D4B03FB0EF340F2676101FB023387FB5A
:101260000312DB17C3EBA213DFF808911844C84739
:10127000364EB0476860364A9368D36053689360CF
:1012800011685160106004FB01F108FB0010314D42
:101290006A68D5F808E0C5F80CE0AA6008FB03010D
:1012A00087FB0130C917C1EBA0102B4B03FB0EF3DA
:1012B00040F2397101FB023387FB0312DB17C3EBEA
:1012C000A2131844C847B047686024498B68CB60B4
:1012D0004A688A600B684B60086004FB03F408FBF3
:1012E00000431F4D6C68A868E860AC601D4901FBB5
:1012F00000F14FF4D06000FB041187FB0140C917D7
:10130000C1EBA01008FB023387FB0327DB17C3EBFD
:10131000A7131844144B984705A3D3E90023134C93
:10132000A047134B9847B0476860BDE8F88300BFFB
:101330008FC2F5285C8FE23F600B0720AEF8FFFFFD
:10134000900B0720D34D6210ADFCFFFF3D2C080031
:10135000700B0720A00B07206EFCFFFF800B0720FF
:10136000B00B0720F9FCFFFF912408005D25080061
:1013700081290800952B08002DE9F843484B9A680D
:10138000DA605E689E601968596018604FF47A7878
:101390006FF08E0404FB01F108FB0010414D6A68F8
:1013A000D5F808E0C5F80CE0AA6008FB06013E4F3E
:1013B00087FB0130C917C1EBA0103C4B03FB0EF3B8
:1013C0003B4901FB023387FB0312DB17C3EBA2137C
:1013D000DFF808911844C847364EB0476860364A6F
:1013E0009368D3605368936011685160106004FB88
:1013F00001F108FB0010314D6A68D5F808E0C5F826
:101400000CE0AA6008FB030187FB0130C917C1EBA0
:10141000A0102B4B03FB0EF340F2333101FB0233E0
:1014200087FB0312DB17C3EBA2131844C847B0476E
:10143000686024498B68CB604A688A600B684B609F
:10144000086004FB03F408FB00431F4D6C68A868A8
:10145000E860AC601D4901FB00F15C2000FB041159
:1014600087FB0140C917C1EBA01008FB023387FBC3
:101470000327DB17C3EBA7131844154B984706A3A4
:10148000D3E90023134CA047134B9847B04768603B
:10149000BDE8F883AFF300809A9999999999B93F7B
:1014A000C00B0720F00B0720D34D62108CFDFFFF0F
:1014B00092FDFFFF3D2C0800D00B0720000C0720F9
:1014C0007AFDFFFFE00B0720100C0720DEFEFFFF78
:1014D000912408005D25080081290800952B08004B
:1014E00038B52520144B9847144C0023144A15494D
:1014F0002046154DA84700231A4619462046134D8D
:10150000A84700212046124B98470A212046114D3A
:10151000A84706212046A84705212046A8470421C0
:101520002046A84703212046A8470022114620460E
:10153000094B984738BD00BF0D1F080000000C4044
:10154000002D3101007A030ADD0108003102080094
:1015500011020800550208002102080038B52620B3
:101560000C4B98470C4C20460C4B984700212046CA
:101570000B4B98470023012211462046094DA847EE
:1015800001212046084B984701212046074B9847E8
:1015900038BD00BF0D1F080000800C400D1608006C
:1015A00015160800491608003116080079160800BB
:1015B00010B51B200E4B98470E4C4FF48042002173
:1015C00020460D4B984740F63402002120460B4B35
:1015D00098474FF000620A4B1A6010220021204603
:1015E000084B984700212046074B984710BD00BF85
:1015F0000D1F0800000008408D160800C5160800E1
:1016000000E100E0CD160800AD16080001230360DC
:10161000704700BF21B1436843F01003436003E00B
:10162000436823F010034360002070470162704755
:101630004368012906D823F4981343EA0141416025
:10164000002070470120704710B4446824F07C5497
:1016500024F47F44090289B20C4312B144F400140B
:1016600001E024F400141B0603F07C531C43446087
:10167000002010BC704700BF012905D8012303FAE0
:1016800001F10161002070470120704710B4890109
:101690004318022444504FF0FF319962196A5A608E
:1016A00010BC7047C0F8C410704700BF8901052303
:1016B00043507047890102234350704700EB81116A
:1016C0000869704700EB8111CA61704700EB811116
:1016D0004A62704700EB8111086A7047F0B585B027
:1016E00005460E461E4B6C46186859689A68DB68BA
:1016F0000FC404EB151313F8103CDB0526B14FF4AF
:101700008001184A116303E04FF48001154A5163C8
:1017100003F0F062134C2263DB4303F0F063636376
:101720004FF40017276301200F4EB0476763642012
:10173000B04705F00F0504AB1D4415F8103CDB0560
:1017400003F0F0622263DB4303F0F063636327631B
:101750000120B04767636420B047002005B0F0BDAA
:10176000D03C080000120E40390308002DE9F04774
:10177000344C4FF480072761C4F8A0704FF4001573
:101780002561C4F8A0504FF0F0632361C4F8A03085
:10179000656347F230502C4EB04767634FF0806A64
:1017A000C4F830A04FF00079C4F830904FF0807842
:1017B000C4F834804FF40007676325630120B04705
:1017C000656341F20400B047C4F830A0C4F830901B
:1017D000C4F83480676325630120B04765636420E3
:1017E000B047C4F830A0C4F83090C4F834806763C0
:1017F00025630120B04765636420B047C4F834A076
:10180000C4F83090C4F83480676325630120B04782
:1018100065636420B047002128200C4CA0470021BC
:101820000820A04700210120A04740F6B830B0476B
:1018300000210620A04700210F20A0470020BDE87E
:10184000F08700BF00120E4039030800DD160800C3
:10185000F0B583B004460D46002301931F4B984218
:1018600007D11F461E4E29463846B0470028FAD1F8
:1018700019E01C4B984209D11F461B4E01A938465E
:10188000B0470028FAD1019B2B7019E0174B984202
:1018900009D11E46144C01A93046A0470028FAD1B0
:1018A000019B2B7018E0124B9C4209D11E460E4C36
:1018B00001A93046A0470028FAD1019B2B700BE00C
:1018C0000C4B9C4208D11E46074C01A93046A0474C
:1018D0000028FAD1019B2B7003B0F0BD00080E4028
:1018E000BD02080000800940E502080000C0094070
:1018F00000000A4000400A4070B50C461E4B98425A
:1019000008D11E461D4D21463046A8470028FAD171
:10191000012070BD1A4B984208D11E46194D214630
:101920003046A8470028FAD1012070BD164B9842D6
:1019300008D11E46134D21463046A8470028FAD14B
:10194000012070BD114B984208D11E460D4D214615
:101950003046A8470028FAD1012070BD0C4B9842B0
:1019600008D11E46074D21463046A8470028FAD127
:10197000012070BD002070BD00080E40AD020800BF
:1019800000800940D102080000C0094000000A4060
:1019900000400A4030B585B00820124DA847124CCF
:1019A000124B1C60124A134B1A60134A134B1A60F5
:1019B000134B01934FF4165302934FF400630393B8
:1019C0000820A84701A920460E4B98470E4D2B68CA
:1019D000002198680D4CA0472B6800215868A0474B
:1019E00005B030BD0D1F080000080E40D00C0720C8
:1019F000F9180800CC0C072051180800C80C072063
:101A000000BD01057502080030040720752D08008F
:101A100008B5164B9847164B98470B20154CA04716
:101A20000C20A0470D20A0470E20A047124B4FF0DE
:101A300080621A61C3F8A0204FF480521A61C3F883
:101A4000A0205A634FF400521A61C3F8A0205A63D1
:101A50000A4B98470A4B98470A4B98470A4B9847B6
:101A60000A4B98470A4B9847FEE700BF951A0800B3
:101A7000F51A08000D1F080000100E409519080007
:101A8000E11408005D150800B1150800FD0208000A
:101A90006D17080010B50D480D4B98473E210020EA
:101AA0000C4B98470C4CA0470028FCD00B4B984798
:101AB0000B4A0C4B9A620C4CA0470028FCD010201B
:101AC0000A4B98470A4B984710BD00BF00BD01055F
:101AD0002D210800891E0800DD1E0800ED1E0800EB
:101AE000013F0D2000060E40FD1E0800211E0800CB
:101AF0001120080010B54FF40042174B5A600B201C
:101B0000164CA0470C20A0470D20A0470E20A04750
:101B10004FF060513B20124CA0474FF060515520D0
:101B2000A0474FF060515620A0470E496820A047BB
:101B30000D495C20A0474FF000624FF440710B4804
:101B40000B4B98474FF000612B20A0474FF00061EE
:101B50002A20A04710BD00BF501A0E400D1F0800DC
:101B6000191C08007900002801000028000E0E4012
:101B7000ED1C08004264B1F1805F16D004D8C1B1F9
:101B8000B1F1006F0AD013E0B1F1405F11D0B1F1B3
:101B9000605F0ED0B1F1205F0AD17047016F036F13
:101BA0000B4023EA0203036702E0036F134303675A
:101BB00042607047416412F0010F14BF4166016634
:101BC00012F00A0F14BF0162416212F0020F02D03C
:101BD000C0F8801004E012F0080F18BFC0F88010A1
:101BE00041610160704700BF10B44164019C0CB1B9
:101BF000416600E001660BB1016500E041650AB194
:101C0000016300E041630161016010BC704700BFE7
:101C1000C06C7047806C704770B582B00D46430948
:101C200003F5001303F207735C0201F0F043B3F114
:101C3000205F30D006D8B3F1006F0AD0B3F1805FD7
:101C400018D049E0B3F1405F30D0B3F1605F2DD0E0
:101C500042E000F01F000126864032464FF000614E
:101C600020461F4B984715F0010F14BF6666266685
:101C7000012032E000F01F000126864032464FF07E
:101C800080512046164B984715F0010F14BF666629
:101C90002666012021E000F01F0101262A4606FAEF
:101CA00001F120460F4B9847304616E005F0605290
:101CB00000F01F01012605EA06030093C5F3800327
:101CC000B2F1605F14BF0022012206FA01F1204642
:101CD000054CA047304600E0002002B070BD00BFB8
:101CE000751B0800B51B0800E91B080070B582B021
:101CF00005460E46144602F0F043B3F1205F26D0AD
:101D000006D8B3F1006F0AD0B3F1805F13D034E08E
:101D1000B3F1405F1FD0B3F1605F1CD02DE00A46E5
:101D20004FF00061164B984714F0010F14BF6E6618
:101D30002E66012022E00A464FF08051104B984752
:101D400014F0010F14BF6E662E66012016E00D4BD5
:101D50009847012012E004F0605204F00103009360
:101D6000C4F38003B2F1605F14BF00220122314648
:101D70002846054CA047012000E0002002B070BDBD
:101D8000751B0800B51B0800E91B0800F8B50446E0
:101D90000E460C4B9847054620460B4B984705408E
:101DA0000FD00A4C2368B34208D16168294205D09C
:101DB000E36830469847636825EA03051034002D30
:101DC000F0D1F8BD111C0800151C0800200C0720DC
:101DD00008B50B210148024B984708BD000E0E4084
:101DE0008D1D080008B50C210148024B984708BD1D
:101DF00000100E408D1D080008B50D210148024B52
:101E0000984708BD00120E408D1D080008B50E2130
:101E10000148024B984708BD00140E408D1D080074
:101E2000184A136B23F0700318431063936E13F07A
:101E3000080F03D009E0013B03D11EE04FF400631B
:101E400010498A6E12F0080FF5D00E4A136B23F07A
:101E5000030343F002031363906E10F0080004D0F4
:101E600000207047013B03D109E04FF400630549AE
:101E70008A6E12F0080FF5D07047012070470120DC
:101E8000704700BF00060E4038B111490B6A114A75
:101E90001A40114B13430B6270470D48026A090246
:101EA00089B222F45C1323F0030343F45C1343F080
:101EB00001030B4303620246936E13F0010FFBD044
:101EC000034A136A43F09B7343F4803313627047F1
:101ED00000060E40FCFFC8FE02003701024B986E60
:101EE00000F48030704700BF00060E404FF00052F3
:101EF000014B9A62704700BF00060E40024B986E7D
:101F000000F00200704700BF00060E402C281ED8CB
:101F10001F280CD8114B9A6901238340934318D092
:101F2000012303FA00F00D4B1861002070472038A0
:101F30000A4BD3F808210123834093430BD001239C
:101F400003FA00F0054BC3F80001002070470120A0
:101F50007047002070470020704700BF00060E4009
:101F6000FEE700BF08B51E4B1E4A9A4203D01E4B27
:101F70001B4A9A4204D31D4B1D4A9A420FD31AE0C2
:101F800017491C4B5B1A23F003030433154A13440F
:101F900052F8040B41F8040B9A42F9D1EBE7164BC7
:101FA000164AD21A22F003021A44043B002143F8D5
:101FB000041B9342FBD1124B23F0604222F07F02BC
:101FC00010498A6003F16043B3F5801F03D28B6828
:101FD00043F000538B600C4B98470C4B9847FEE73F
:101FE000000007200C3D080044080720E00C0720F3
:101FF000440807204308072048080720E30C07206F
:102000000000080000ED00E0892C0800111A08000B
:102010003E4B1B6B03F00303032B5FD8DFE803F099
:10202000020E2B2B3A4B5B6913F0800F14BF4FF459
:1020300000424FF4FA42374B1A604FE0334B1B6AB1
:1020400013F0807F03D0344A324B1A6046E0334AA3
:10205000304B1A602D4B1B6A03F07003102B02D01B
:10206000202B04D03AE02E4A2A4B1A6036E02A4A46
:10207000284B1A6032E0254B1B6A13F0807F03D097
:10208000254A244B1A6012E0244A224B1A601F4B47
:102090001B6A03F07003102B02D0202B04D006E043
:1020A0001F4A1C4B1A6002E01B4A1A4B1A60174B5E
:1020B0001B6B03F00303022B0DD1144A936A926A3F
:1020C0001448C3F30A41036801FB0333D2B2B3FBE4
:1020D000F2F3036002E0134A0E4B1A600B4B1B6BCA
:1020E00003F07003702B07D10A4A13680E49A1FB55
:1020F00003135B0813607047044B1B6B0549C3F364
:1021000002120B68D3400B60704700BF00060E4000
:10211000101A0E4000000720001BB70000093D0008
:1021200000127A00001C4E0EABAAAAAA1B4B9842C2
:1021300006D800231A4A136002F500721360704734
:10214000184B984207D84FF48073154A136002F574
:10215000007213607047144B984207D84FF4007315
:102160000F4A136002F50072136070470F4B9842DC
:1021700007D84FF440730A4A136002F500721360E7
:1021800070470B4B984294BF4FF480634FF4A063A9
:10219000034A136002F5007213607047BFEA210121
:1021A000000A0E407FF0FA02FF8FD003FFB3C40491
:1021B0007F4A5D050346054A126812B90449034A7D
:1021C0001160024A1068034413607047900C0720A6
:1021D000E02C07204FF0FF30704700BF4FF4005352
:1021E0004B600020704700BF0020704781F0004125
:1021F00002E000BF83F0004330B54FEA41044FEAEC
:10220000430594EA050F08BF90EA020F1FBF54EA86
:10221000000C55EA020C7FEA645C7FEA655C00F022
:10222000E2804FEA5454D4EB5555B8BF6D420CDDF3
:102230002C4480EA020281EA030382EA000083EA76
:10224000010180EA020281EA0303362D88BF30BD16
:1022500011F0004F4FEA01314FF4801C4CEA11316C
:1022600002D0404261EB410113F0004F4FEA0333CB
:102270004CEA133302D0524263EB430394EA050F56
:1022800000F0A780A4F10104D5F1200E0DDB02FAC5
:102290000EFC22FA05F2801841F1000103FA0EF259
:1022A000801843FA05F359410EE0A5F120050EF11F
:1022B000200E012A03FA0EFC28BF4CF0020C43FA50
:1022C00005F3C01851EBE37101F0004507D54FF05D
:1022D000000EDCF1000C7EEB00006EEB0101B1F5AD
:1022E000801F1BD3B1F5001F0CD349085FEA3000F3
:1022F0004FEA3C0C04F101044FEA445212F5800FFE
:1023000080F09A80BCF1004F08BF5FEA500C50F19A
:10231000000041EB045141EA050130BD5FEA4C0C7D
:10232000404141EB010111F4801FA4F10104E9D106
:1023300091F0000F04BF01460020B1FA81F308BFFD
:102340002033A3F10B03B3F120020CDA0C3208DDC9
:1023500002F1140CC2F10C0201FA0CF021FA02F1A4
:102360000CE002F11402D8BFC2F1200C01FA02F114
:1023700020FA0CFCDCBF41EA0C019040E41AA2BF39
:1023800001EB0451294330BD6FEA04041F3C1CDA01
:102390000C340EDC04F11404C4F1200220FA04F021
:1023A00001FA02F340EA030021FA04F345EA0301CB
:1023B00030BDC4F10C04C4F1200220FA02F001FA8D
:1023C00004F340EA0300294630BD21FA04F029460F
:1023D00030BD94F0000F83F4801306BF81F48011A8
:1023E0000134013D4EE77FEA645C18BF7FEA655C1B
:1023F00029D094EA050F08BF90EA020F05D054EAED
:10240000000C04BF1946104630BD91EA030F1EBFF1
:102410000021002030BD5FEA545C05D140004941F5
:1024200028BF41F0004130BD14F580043CBF01F5E8
:10243000801130BD01F0004545F0FE4141F47001CE
:102440004FF0000030BD7FEA645C1ABF19461046A9
:102450007FEA655C1CBF0B46024650EA013406BFAA
:1024600052EA033591EA030F41F4002130BD00BF69
:1024700090F0000F04BF0021704730B54FF4806426
:1024800004F132044FF000054FF0000150E700BFA7
:1024900090F0000F04BF0021704730B54FF4806406
:1024A00004F1320410F0004548BF40424FF00001F3
:1024B0003EE700BF42004FEAE2014FEA31014FEA36
:1024C00002701FBF12F07F4393F07F4F81F0605185
:1024D000704792F0000F14BF93F07F4F704730B5F4
:1024E0004FF4607401F0004521F0004120E700BF87
:1024F00050EA010208BF704730B54FF000050AE00E
:1025000050EA010208BF704730B511F0004502D50E
:10251000404261EB41014FF4806404F132045FEA10
:10252000915C3FF4DCAE4FF003025FEADC0C18BFB5
:1025300003325FEADC0C18BF033202EBDC02C2F1AB
:10254000200300FA03FC20FA02F001FA03FE40EA3D
:102550000E0021FA02F11444C1E600BF70B54FF03D
:10256000FF0C4CF4E06C1CEA11541DBF1CEA13551F
:1025700094EA0C0F95EA0C0F00F0DEF82C4481EA87
:10258000030621EA4C5123EA4C5350EA013518BFA7
:1025900052EA033541F4801143F4801338D0A0FB94
:1025A00002CE4FF00005E1FB02E506F00042E0FB41
:1025B00003E54FF00006E1FB03569CF0000F18BF47
:1025C0004EF0010EA4F1FF04B6F5007F64F54074EF
:1025D00004D25FEA4E0E6D4146EB060642EAC62182
:1025E00041EA55514FEAC52040EA5E504FEACE2EEF
:1025F000B4F1FD0C88BFBCF5E06F1ED8BEF1004FF2
:1026000008BF5FEA500E50F1000041EB045170BD6D
:1026100006F0004646EA010140EA020081EA0301B1
:10262000B4EB5C04C2BFD4EB0C0541EA045170BDAD
:1026300041F480114FF0000E013C00F3AB8014F127
:10264000360FDEBF002001F0004170BDC4F1000470
:10265000203C35DA0C341BDC04F11404C4F12005F1
:1026600000FA05F320FA04F001FA05F240EA02004C
:1026700001F0004221F0004110EBD37021FA04F682
:1026800042EB06015EEA430E08BF20EAD37070BD3C
:10269000C4F10C04C4F1200500FA04F320FA05F09B
:1026A00001FA04F240EA020001F0004110EBD3709D
:1026B00041F100015EEA430E08BF20EAD37070BD0D
:1026C000C4F1200500FA05F24EEA020E20FA04F3E6
:1026D00001FA05F243EA020321FA04F001F0004195
:1026E00021FA04F220EA020000EBD3705EEA430E06
:1026F00008BF20EAD37070BD94F0000F0FD101F035
:102700000046400041EB010111F4801F08BF013C6D
:10271000F7D041EA060195F0000F18BF704703F0AB
:102720000046520043EB030313F4801F08BF013D32
:10273000F7D043EA0603704794EA0C0F0CEA1355EE
:1027400018BF95EA0C0F0CD050EA410618BF52EAA8
:102750004306D1D181EA030101F000414FF00000AE
:1027600070BD50EA410606BF1046194652EA4306BC
:1027700019D094EA0C0F02D150EA013613D195EA30
:102780000C0F05D152EA03361CBF104619460AD178
:1027900081EA030101F0004141F0FE4141F4700182
:1027A0004FF0000070BD41F0FE4141F4780170BD72
:1027B00070B54FF0FF0C4CF4E06C1CEA11541DBFD7
:1027C0001CEA135594EA0C0F95EA0C0F00F0A7F8D9
:1027D000A4EB050481EA030E52EA03354FEA013106
:1027E00000F088804FEA03334FF0805545EA131319
:1027F00043EA12634FEA022245EA111545EA1065E1
:102800004FEA00260EF000419D4208BF964244F177
:10281000FD0404F5407402D25B084FEA3202B61A96
:1028200065EB03055B084FEA32024FF480104FF46A
:10283000002CB6EB020E75EB030E22BFB61A7546DE
:1028400040EA0C005B084FEA3202B6EB020E75EB71
:10285000030E22BFB61A754640EA5C005B084FEAD9
:102860003202B6EB020E75EB030E22BFB61A7546A6
:1028700040EA9C005B084FEA3202B6EB020E75EBB1
:10288000030E22BFB61A754640EADC0055EA060E72
:1028900018D04FEA051545EA16754FEA06164FEAB5
:1028A000C30343EA52734FEAC2025FEA1C1CC0D161
:1028B00011F4801F0BD141EA00014FF000004FF0EE
:1028C000004CB6E711F4801F04BF01430020B4F1AF
:1028D000FD0C88BFBCF5E06F3FF6AFAEB5EB030C67
:1028E00004BFB6EB020C5FEA500C50F1000041EB64
:1028F000045170BD0EF0004E4EEA113114EB5C0431
:10290000C2BFD4EB0C0541EA045170BD41F4801103
:102910004FF0000E013C90E645EA060E8DE60CEA0B
:10292000135594EA0C0F08BF95EA0C0F3FF43BAF28
:1029300094EA0C0F0AD150EA01347FF434AF95EADF
:102940000C0F7FF425AF104619462CE795EA0C0FC3
:1029500006D152EA03353FF4FDAE1046194622E790
:1029600050EA410618BF52EA43067FF4C5AE50EA6A
:1029700041047FF40DAF52EA43057FF4EBAE12E75A
:102980004FEA4102B2F1E04324BFB3F5001CDCF191
:10299000FE5C0DD901F0004C4FEAC0024CEA5070C9
:1029A000B2F1004F40EB830008BF20F001007047F8
:1029B00011F0804F21D113F13872BCBF01F00040FB
:1029C000704741F480114FEA5252C2F11802C2F12D
:1029D000200C10FA0CF320FA02F018BF40F00100AE
:1029E0004FEAC1234FEAD32303FA0CFC40EA0C0060
:1029F00023FA02F34FEA4303CCE77FEA625307D19D
:102A000050EA01331EBF4FF0FE4040F440007047D3
:102A100001F0004040F0FE4040F40000704700BF6D
:102A200080F0004002E000BF81F0004142001FBF83
:102A30005FEA410392EA030F7FEA226C7FEA236C8C
:102A40006AD04FEA1262D2EB1363C1BFD218414081
:102A500048404140B8BF5B42192B88BF704710F017
:102A6000004F40F4000020F07F4018BF404211F0BA
:102A7000004F41F4000121F07F4118BF494292EA22
:102A8000030F3FD0A2F1010241FA03FC10EB0C004E
:102A9000C3F1200301FA03F100F0004302D54942DB
:102AA00060EB4000B0F5000F13D3B0F1807F06D388
:102AB00040084FEA310102F10102FE2A51D2B1F180
:102AC000004F40EBC25008BF20F0010040EA030075
:102AD0007047490040EB000010F4000FA2F1010222
:102AE000EDD1B0FA80FCACF1080CB2EB0C0200FAAC
:102AF0000CF0AABF00EBC25052421843BCBFD040FA
:102B00001843704792F0000F81F4000106BF80F473
:102B100000000132013BB5E74FEA41037FEA226C36
:102B200018BF7FEA236C21D092EA030F04D092F001
:102B3000000F08BF0846704790EA010F1CBF002035
:102B4000704712F07F4F04D1400028BF40F0004092
:102B5000704712F100723CBF00F50000704700F0B2
:102B6000004343F0FE4040F4000070477FEA2262D9
:102B700016BF08467FEA23630146420206BF5FEAAA
:102B8000412390EA010F40F4800070474FF00003AA
:102B900004E000BF10F0004348BF40425FEA000C71
:102BA00008BF704743F0964301464FF000001CE019
:102BB00050EA010208BF70474FF000030AE000BF6F
:102BC00050EA010208BF704711F0004302D54042AD
:102BD00061EB41015FEA010C02BF8446014600201F
:102BE00043F0B64308BFA3F18053A3F50003BCFA3A
:102BF0008CF2083AA3EBC25310DB01FA02FC6344E7
:102C000000FA02FCC2F12002BCF1004F20FA02F2ED
:102C100043EB020008BF20F00100704702F12002E0
:102C200001FA02FCC2F1200250EA4C0021FA02F241
:102C300043EB020008BF20EADC7070474FEA400215
:102C4000B2F1FE4F0FD34FF09E03B3EB12620DD9DA
:102C50004FEA002343F0004310F0004F23FA02F044
:102C600018BF404270474FF00000704712F1610FEB
:102C700001D1420205D110F0004008BF6FF00040C2
:102C800070474FF00000704770B50F4E0F4D761B28
:102C9000B61018BF002405D0013455F8043B9847FE
:102CA000A642F9D10A4E0B4D01F01EF8761BB61064
:102CB00018BF002406D0013455F8043B9847A642BB
:102CC000F9D170BD70BD00BFF43C0800F43C0800B1
:102CD000FC3C0800F43C080070B4840746D0541E45
:102CE000002A41D0CDB2034602E0621EE4B314468E
:102CF00003F8015B9A07F8D1032C2ED9CDB245EA2F
:102D000005250F2C45EA054519D9264603F1100281
:102D1000103E0F2E42F8105C42F80C5C42F8085C42
:102D200042F8045C02F11002F2D8A4F1100222F081
:102D30000F0204F00F041032032C13440DD91E4669
:102D40002246043A032A46F8045BFAD8221F22F0EE
:102D500003020432134404F003042CB1C9B21C442E
:102D600003F8011BA342FBD170BC70471446034615
:102D7000C2E700BF00290CBF022200224FF480638B
:102D800000F000B82DE9F043514D83B02D680446A2
:102D90000F4690461E4615B1AB6B002B79D0B8F1AB
:102DA000020F04D0B8F1010F7FD8002E7DDB214641
:102DB000284600F043F9216B41B104F140039942E8
:102DC00002D0284600F03AFA00232363B4F90C300D
:102DD0000022A26162601A0654D423F44A6323F0ED
:102DE0000303B8F1020FA38139D001AB6A46214633
:102DF000284600F033FBA3891843A08126B327B3EC
:102E0000AB6B002B4DD0009BB4F90C009E421CBF55
:102E100040F40060A081B8F1010F08BF40F001004C
:102E200083B208BFA08103F0080080B22760276149
:102E3000666118B313F001002FD000207642A6611E
:102E4000A06003B0BDE8F083009E304600F036FB82
:102E5000074668B3A38943F08003A381D0E700202D
:102E600004F1430243F0020300250121A381A56080
:102E700022602261616103B0BDE8F083A06003B00D
:102E8000BDE8F0832169284600F0D8F9B4F90C3088
:102E9000A3E7284600F066F981E7A66003B0BDE825
:102EA000F083284600F05EF9ADE74FF0FF30E2E72F
:102EB000DDF80090B14506D0484600F0FFFA07461D
:102EC00008B14E46C6E7B4F90C304FF0FF30C7E703
:102ED00030040720024B13B1024800F005B87047D8
:102EE0000000000079310800002301461A46184608
:102EF00000F008BEB1F90C302DE9F0419AB20D4650
:102F0000110780463CD46A6843F40063002AAB8111
:102F100073DDAC6A002C4BD09BB203F480520021CD
:102F200092B2D8F80060C8F80010002A69D02A6D63
:102F30005F0705D569682B6B521A0BB1EB6BD21A80
:102F40000023E9694046A047441C3CD0B5F90C3049
:102F5000296923F400630022AB81DB0485E80600C5
:102F600049D4296BC8F8006011B305F140039942B8
:102F700002D0404600F062F900202863BDE8F081ED
:102F80002E69AEB190072C680CBF6B6900232E60D0
:102F9000A41BAB600AE0234632466F6AE9694046EB
:102FA000B8470028A4EB0004064404DD002CF2DC42
:102FB0000020BDE8F081AB894FF0FF3043F04003C3
:102FC000AB81BDE8F081D8F800201D2AF3D81A4B58
:102FD000D34003F0010383F00104002BEBD0B5F9DB
:102FE0000C30296923F400632960D9046C60AB813B
:102FF000B7D5002AB5D12865B3E7EA6B002A88DC8B
:10300000D6E70123E9694046A047431C024602D0A7
:10301000AB89AC6A8CE7D8F80030002BF8D01D2BB8
:1030200001D0162B02D1C8F80060C1E7AB8943F08C
:103030004003AB81BDE8F0810100402010B504469B
:1030400082B008B1836B53B1B1F90C0008B902B07A
:1030500010BD204602B0BDE81040FFF74BBF019104
:1030600000F080F80199EFE7014900F0CFB900BF07
:10307000CD3B08002DE9F04F074635487D68002418
:1030800007F53B7204230321F863C7F8E412C7F87D
:10309000E822C7F8E04283B02C606C60AC606C66DC
:1030A000EC812C616C61AC61AB81214605F15C0067
:1030B0000822FFF711FEDFF89CB0BE68DFF898A089
:1030C000DFF89890DFF8988001230922C5F820B036
:1030D000C5F824A0C5F82890C5F82C80ED612146DC
:1030E000F381B28106F15C0034607460B460746690
:1030F00034617461B46108220193FFF7EDFDFD684E
:1031000012200222F661C6F820B0C6F824A0C6F844
:103110002890C6F82C802146A881EA812C606C603A
:10312000AC606C662C616C61AC6105F15C000822DE
:10313000FFF7D2FD019BED61C5F820B0C5F824A0D2
:10314000C5F82890C5F82C80BB6303B0BDE8F08FAC
:1031500069300800513A0800753A0800B13A080091
:10316000D13A0800836B03B17047FFF783BF00BFFC
:10317000704700BF704700BF38B5074D074C2C1B88
:10318000A41005D0013C55F8043D9847002CF9D116
:10319000BDE8384000F0B2BD0C3D0800083D080015
:1031A000F8B50C46224F064600F03CFCBB685D6853
:1031B00025F00305291B01F6EF7121F47F6121F051
:1031C0000F01A1F58054B4F5805F07DB0021304684
:1031D00000F02CFCBB682B44984204D0304600F031
:1031E00023FC0020F8BD6142304600F01FFC013096
:1031F0000DD0104BBA6819682D1B45F001053046FB
:10320000091B5560196000F00FFC0120F8BD00217A
:10321000304600F00BFCBA68831A0F2BDEDD064C3B
:103220000449246843F00103001B53600860D5E79C
:1032300034040720A00C072040080720002945D0AF
:103240002DE9F0410D46804600F0ECFB55F8047C7A
:103250006A49A5F1080427F00103E2188E68506856
:10326000B24220F0030062D0FE0750600BD455F844
:10327000087C01F1080EE41BA5683B4475456FD03E
:10328000E768EF60BD6015186D68ED0742D543F043
:1032900001026260E350B3F5007F18D2DB08486892
:1032A0009D100122013351F8337002FA05F501EB4C
:1032B000C3022843083AE260A760486041F83340FF
:1032C000FC604046BDE8F04100F0AEBB70475A0AD2
:1032D000042A53D89A0902F139077F0002F1380510
:1032E00001EB870051F827200838904243494DD020
:1032F000516821F003018B4202D292689042F7D1CB
:10330000D068E060A2608460D4604046BDE8F041CF
:1033100000F08ABB95683A4F0344BD423FD0D06865
:1033200043F00102E86085606260E350B3E7FF07A5
:10333000034407D455F8085C641BE268A0682B447A
:10334000C26090602F4A43F00100126860609342AF
:103350008C60B6D32C4B40461968FFF721FFB0E7CD
:1033600011184968C90744D491680344D26843F0EE
:103370000100CA6091606060E350A2E7142A17D888
:1033800002F15C077F0002F15B05A9E7AA104B6818
:10339000012505FA02F213434B600246B1E743F000
:1033A00001024C610C61E560A5606260E35088E752
:1033B000542A06D81A0B02F16F077F0002F16E053E
:1033C0008EE7B2F5AA7F06D8DA0B02F178077F0004
:1033D00002F1770584E740F25450824206D89A0CF5
:1033E00002F17D077F0002F17C0579E7FE277E254B
:1033F00076E743F001026260E35062E7340407209D
:103400003C0407203C0807209C0C07202DE9F843CA
:1034100010F538761ED0884607464FF000097568CB
:10342000B468013D10D4A389013D012B08D9B4F93A
:103430000E30013304D021463846C04749EA00091E
:103440006B1C04F16804EED13668002EE7D14846C3
:10345000BDE8F883B1464846BDE8F88370B50E462E
:10346000B1F90E1090B0002914461D4614DB01AAD4
:1034700000F0EEFB00280FDB029A4FF4806302F4A9
:103480007042A2F50052B2FA82F24FF40060520983
:103490002A60236010B070BDB289002002F0800263
:1034A00092B228601AB14023236010B070BD10465C
:1034B0004FF48063236010B070BD00BF024B014623
:1034C000186800F003B800BF300407202DE9F04F62
:1034D00001F10B05162D83B0064640F2A08035F0B1
:1034E000070500F1C080A94200F2BD8000F09AFA01
:1034F000B5F5FC7FC0F090826B0A00F0BB80042B16
:1035000000F27781A80900F1390E4FEA4E013830F8
:10351000BE4F07EB81014C680839A14207D1AEE0EC
:10352000002A80F2AE80E468A14200F0A8806368BF
:1035300023F003035A1B0F2AF2DDB4493C6901F161
:10354000080E744500F0A881636823F003035A1B3A
:103550000F2A00F38E81002AC1F814E0C1F810E0B0
:1035600080F29380B3F5007F80F05C81DB084A68CD
:103570004FEAA3094FF0010C013351F833800CFAE4
:1035800009F901EBC30C49EA0202ACF1080CC4F8DA
:103590000CC0C4F808804A6041F83340C8F80C40B9
:1035A000831001249C4094427CD8144206D120F020
:1035B00003006400144200F10400FAD007EBC009D4
:1035C000CC468046DCF80C108C4507D166E1002A19
:1035D00080F27481C9688C4500F060814B6823F0EB
:1035E00003035A1B0F2AF2DD0C46CB6854F808CFB0
:1035F00045F00108C1F804800D4442F00101CCF807
:103600000C303046C3F808C07D613D61C5F80CE060
:10361000C5F808E06960AA5000F006FA1FE010291A
:1036200021D800F0FFF9102506230220774F07EB81
:1036300083035C68A3F10802944200F03881636858
:10364000E16823F0030323445A68A56842F00102AD
:10365000E96030468D605A6000F0E6F90834204693
:1036600003B0BDE8F08F002420460C23336003B084
:10367000BDE8F08F80214FF0400E3F2048E77046B4
:103680005BE723445A68E168DFE723445A68304621
:1036900042F001025A60083400F0C6F9204603B037
:1036A000BDE8F08FBC68636823F00308A84504D325
:1036B000C5EB08030F2B00F38C80554BDFF86091AE
:1036C0001A68D9F800302A44013304EB080A00F0E4
:1036D000608102F580520F3222F47F6222F00F02E5
:1036E00011463046019200F0A1F9B0F1FF3F834648
:1036F000019A00F05881824500F2FC80454BDA4582
:1037000019681144196000F05381D9F80000DFF8FE
:1037100010E101301BBFCAEB0B0A5144CEF800B0D8
:1037200019601BF0070100F01781C1F10800C1F515
:103730008051834408315A44C2F30B02C2EB0109A1
:1037400049463046019300F071F9431C019B00F09B
:103750003F81CBEB00024A4442F001021968BC42AF
:103760004944C7F808B01960CBF80420DFF8A490EA
:1037700016D0B8F10F0F40F2FD806268A8F10C037B
:1037800023F0070302F00102E0184FF0050E1A4380
:103790000F2B6260C0F804E0C0F808E000F21C8162
:1037A0001D4BBC681A68914288BF19601B4B1A6890
:1037B0009142626888BF196022F003029542A2EB31
:1037C000050301D80F2B04DC304600F02DF900244E
:1037D00045E745F0010243F00103254462603046AD
:1037E000BD6008346B6000F01FF9204603B0BDE8EF
:1037F000F08F142B71D9542B00F2A480280B00F108
:103800006F0E4FEA4E016E3082E600BF340407208F
:103810009C0C0720A00C0720980C0720940C072074
:10382000400807205A0A042A5ED9142A00F2B380FD
:1038300002F15C0149005B3207EB810C57F8211063
:10384000ACF1080C8C45DFF8D88100F088804A681C
:1038500022F00302934202D289688C45F7D1D1F855
:103860000CC07A68C4F80CC0A160CCF80840CC60E9
:1038700096E645F0010742F00103254467603046B3
:103880004D610D61C5F80CE0C5F808E06B60AA5009
:10389000083400F0C9F8E2E64A6881E608F1010858
:1038A00018F0030F0CF1080C7FF48CAE30E0DC68EC
:1038B000A34208BF02303FF440AEC0E60C460B44C2
:1038C0005A68C96854F8085F42F001025A603046ED
:1038D000E9608D6000F0A8F8C1E603F15C0E03F129
:1038E0005B004FEA4E0113E69A0902F139014900E3
:1038F0003832A1E7BC424A4B3FF400AF9C68626893
:1039000022F003025AE759F80839994540F08280BD
:1039100010F0030F00F1FF30F5D17B6823EA0403B8
:103920007B6064009C423FF6BDAE002C3FF4BAAE13
:103930001C4240467FF442AE64001C4200F1040089
:10394000FAD03BE6B3F5AA7F18D8E80B00F1780E61
:103950004FEA4E017730DBE54FF48051EBE6012171
:10396000D8F80430921001FA02F21A43C8F8042081
:10397000614677E70123CBF8043025E740F2545243
:10398000934220D8A80C00F17D0E4FEA4E017C3006
:10399000BEE51032A4E6542A26D81A0B02F16F01B4
:1039A00049006E3248E7BC68626822F0030205E70E
:1039B000CAF30B0000287FF4A8AE4244BB6842F073
:1039C00001025A60ECE6FE214FF07F0E7E209FE55B
:1039D00001224FF00009C1E604F108013046FFF76B
:1039E0002DFCD9F80010DBE6B2F5AA7F05D8DA0B7A
:1039F00002F17801490077321EE740F254518A42C1
:103A000005D89A0C02F17D0149007C3214E7FE21B1
:103A10007E2211E77B6884E7E808431C5B0005E62B
:103A200034040720704700BF704700BF38B5074C0B
:103A30000023054608462360FEF7BCFB431C00D06C
:103A400038BD2368002BFBD02B6038BDDC0C072071
:103A500010B50C46B1F90E1000F024F9002803DB74
:103A6000236D0344236510BDA38923F48053A381F0
:103A700010BD00BF2DE9F0410C46B1F90C101F46F6
:103A8000CB051646054607D5B4F90E1002230022D1
:103A900000F0F2F8B4F90C1021F48051A1813B46FA
:103AA0003246B4F90E102846BDE8F04100F014B8D3
:103AB00010B50C46B1F90E1000F0DEF8A389421CD7
:103AC0000EBF23F4805343F480532065A38110BDBF
:103AD000B1F90E1000F068B870B50D46084C1146EB
:103AE00006461A46284600232360FCF74FFB431C7A
:103AF00000D070BD2368002BFBD0336070BD00BFC9
:103B0000DC0C07202DE9F047254C06462568884641
:103B1000D5F8484192469946C4B360681F2817DC1F
:103B2000411C76B104EB8003C3F888A0D4F8885117
:103B3000012282401543022EC4F88851C3F808912F
:103B40001ED0831C6160002044F82380BDE8F0870C
:103B5000144B03B34FF4C870FFF7B0FC0446D0B168
:103B6000D5F84831002784E888003846C5F8484130
:103B70000121C4F88871C4F88C71002EE1D0D1E71E
:103B8000D4F88C311A43C4F88C21DAE705F5A67411
:103B9000C5F84841C1E74FF0FF30BDE8F08700BFEE
:103BA000E43C0800BD34080038B5074C0023054646
:103BB00008462360FEF70EFB431C00D038BD236887
:103BC000002BFBD02B6038BDDC0C072000293DD03A
:103BD00070B505460C4608B1836B7BB3B4F90C3065
:103BE0000BB9002070BD21462846FFF783F9E36A30
:103BF000064633B1E169284698470028B8BF4FF020
:103C0000FF36A3891B061CD4216B41B104F140038C
:103C1000994202D02846FFF711FB00232363616C11
:103C200021B12846FFF70AFB00236364FFF7A0FADF
:103C30000023A381FFF79EFA304670BDFFF792FA8A
:103C4000CCE721692846FFF7F9FADDE70020704745
:103C500038B50B46074C054611461846002323602D
:103C6000FEF7BCFA431C00D038BD2368002BFBD004
:103C70002B6038BDDC0C072070B50D46084C114692
:103C800006461A46284600232360FEF7ADFA431C79
:103C900000D070BD2368002BFBD0336070BD00BF27
:103CA000DC0C072070B50D46084C114606461A4636
:103CB000284600232360FCF74BFA431C00D070BD5C
:103CC0002368002BFBD0336070BD00BFDC0C0720E5
:103CD0000008040C020A060E0109050D030B070F6C
:103CE0004300000008000720F8B500BFF8BC08BC7E
:103CF0009E467047D52E080019010800F8B500BF90
:0C3D0000F8BC08BC9E467047F5000800A7
:103D0C0000093D000000000000000000F402072044
:103D1C005C030720C4030720000000000000000023
:103D2C000000000000000000000000000000000087
:103D3C00000000000000000000000000E03C080053
:103D4C000000000000000000000000000000000067
:103D5C000000000000000000000000000000000057
:103D6C000000000000000000000000000000000047
:103D7C000000000000000000000000000000000037
:103D8C000000000000000000000000000000000027
:103D9C000000000000000000000000000000000017
:103DAC000000000000000000000000000000000007
:103DBC0001000000000000000E33CDAB34126DE6A4
:103DCC00ECDE05000B00000000000000000000000D
:103DDC0000000000000000000000000000000000D7
:103DEC0000000000000000000000000000000000C7
:103DFC0000000000000000000000000000000000B7
:103E0C0000000000000000000000000000000000A6
:10413C0008000720000000000000000034040720E5
:10414C00340407203C0407203C04072044040720C7
:10415C00440407204C0407204C0407205404072077
:10416C00540407205C0407205C0407206404072027
:10417C00640407206C0407206C04072074040720D7
:10418C00740407207C0407207C0407208404072087
:10419C00840407208C0407208C0407209404072037
:1041AC00940407209C0407209C040720A4040720E7
:1041BC00A4040720AC040720AC040720B404072097
:1041CC00B4040720BC040720BC040720C404072047
:1041DC00C4040720CC040720CC040720D4040720F7
:1041EC00D4040720DC040720DC040720E4040720A7
:1041FC00E4040720EC040720EC040720F404072057
:10420C00F4040720FC040720FC0407200405072005
:10421C00040507200C0507200C05072014050720B2
:10422C00140507201C0507201C0507202405072062
:10423C00240507202C0507202C0507203405072012
:10424C00340507203C0507203C05072044050720C2
:10425C00440507204C0507204C0507205405072072
:10426C00540507205C0507205C0507206405072022
:10427C00640507206C0507206C05072074050720D2
:10428C00740507207C0507207C0507208405072082
:10429C00840507208C0507208C0507209405072032
:1042AC00940507209C0507209C050720A4050720E2
:1042BC00A4050720AC050720AC050720B405072092
:1042CC00B4050720BC050720BC050720C405072042
:1042DC00C4050720CC050720CC050720D4050720F2
:1042EC00D4050720DC050720DC050720E4050720A2
:1042FC00E4050720EC050720EC050720F405072052
:10430C00F4050720FC050720FC0507200406072000
:10431C00040607200C0607200C06072014060720AD
:10432C00140607201C0607201C060720240607205D
:10433C00240607202C0607202C060720340607200D
:10434C00340607203C0607203C06072044060720BD
:10435C00440607204C0607204C060720540607206D
:10436C00540607205C0607205C060720640607201D
:10437C00640607206C0607206C06072074060720CD
:10438C00740607207C0607207C060720840607207D
:10439C00840607208C0607208C060720940607202D
:1043AC00940607209C0607209C060720A4060720DD
:1043BC00A4060720AC060720AC060720B40607208D
:1043CC00B4060720BC060720BC060720C40607203D
:1043DC00C4060720CC060720CC060720D4060720ED
:1043EC00D4060720DC060720DC060720E40607209D
:1043FC00E4060720EC060720EC060720F40607204D
:10440C00F4060720FC060720FC06072004070720FB
:10441C00040707200C0707200C07072014070720A8
:10442C00140707201C0707201C0707202407072058
:10443C00240707202C0707202C0707203407072008
:10444C00340707203C0707203C07072044070720B8
:10445C00440707204C0707204C0707205407072068
:10446C00540707205C0707205C0707206407072018
:10447C00640707206C0707206C07072074070720C8
:10448C00740707207C0707207C0707208407072078
:10449C00840707208C0707208C0707209407072028
:1044AC00940707209C0707209C070720A4070720D8
:1044BC00A4070720AC070720AC070720B407072088
:1044CC00B4070720BC070720BC070720C407072038
:1044DC00C4070720CC070720CC070720D4070720E8
:1044EC00D4070720DC070720DC070720E407072098
:1044FC00E4070720EC070720EC070720F407072048
:10450C00F4070720FC070720FC07072004080720F6
:10451C00040807200C0807200C08072014080720A3
:10452C00140807201C0807201C0807202408072053
:10453C00240807202C0807202C0807200000020064
:04454C00FFFFFFFF6F
:0400000380001F65F5
:00000001FF
