S00E000045786A6F62622E73726563BC
S21408000080250720390C0800350C0800350C080038
S214080010350C0800350C0800350C080000000000F8
S214080020000000000000000000000000350C08007A
S214080030350C080000000000350C0800350C0800D8
S214080040350C0800350C0800350C0800350C08007F
S214080050350C0800350C0800350C0800350C08006F
S214080060350C0800350C080000000000A90A080036
S214080070BD0A0800D10A0800E50A080000000000CA
S21408008000000000350C0800350C0800350C080088
S214080090350C0800350C0800350C0800350C08002F
S2140800A0350C080000000000350C08008504080020
S2140800B0350C0800350C0800350C0800350C08000F
S2140800C0350C0800350C0800350C0800350C0800FF
S2140800D0350C0800350C0800350C0800350C0800EF
S2140800E0350C0800350C0800350C0800350C0800DF
S2140800F0350C080010B5054C237833B9044B13B1FA
S2140801000448AFF300800123237010BD3004072095
S21408011000000000241B08000C4B43B10C4810B527
S2140801200C49AFF300800C48036823B910BD0A4891
S214080130036833B97047094B002BF7D0BDE8104069
S2140801401847064B002BF5D0184700BF00000000E4
S214080150241B080034040720241B080000000000A5
S21408016030B4012404600024446040F20225C0F83C
S2140801702051C0F80441C0F8144145685200B1FB4C
S214080180F2F2013A120292B22B431A434260204618
S21408019030BC70474368090101F0100119434160FB
S2140801A070474368D201D2B219430A434260704787
S2140801B010B44468090601F0706121430A43190720
S2140801C001F040511143416010BC704702230360A0
S2140801D07047012303FA01F1016170470F299ABF9E
S2140801E0503050F8210000207047006B7047000020
S2140801F0F8B5214901F11C052B4653F8042C43F8A1
S21408020004298B42F9D11C4B43F804091B490022E8
S21408021053F8040F51F8044F04FB0022AB42F7D101
S214080220174E371D174820363B46002153F8044B17
S21408023050F8045B05FB0411B342F7D1124B53F890
S214080240040D58609F42FAD1104880FB0243D2172B
S214080250C2EB233280FB0130C917C1EB20301044B3
S2140802600B4B984704460B4B9847054B586020465F
S214080270094B9847F8BD00BF8C040720981A080059
S214080280AC040720401A0800C8040720AD8BDB68BA
S214080290B917080061180800AD180800F8B5214914
S2140802A001F11C052B4653F8042C43F804298B420D
S2140802B0F9D11C4B43F804091B49002253F8040FD4
S2140802C051F8044F04FB0022AB42F7D1174E371DF6
S2140802D0174820363B46002153F8044B50F8045B79
S2140802E005FB0411B342F7D1124B53F8040D5860BE
S2140802F09F42FAD1104880FB0243D217C2EB233242
S21408030080FB0130C917C1EB203010440B4B9847CF
S21408031004460B4B9847054B58602046094B9847B0
S214080320F8BD00BF4C040720B81A0800CC04072004
S214080330601A0800E8040720AD8BDB68B9170800C8
S21408034061180800AD180800F8B5214901F11C0528
S2140803502B4653F8042C43F804298B42F9D11C4B3E
S21408036043F804091B49002253F8040F51F8044FB8
S21408037004FB0022AB42F7D1174E371D174820362C
S2140803803B46002153F8044B50F8045B05FB041168
S214080390B342F7D1124B53F8040D58609F42FAD176
S2140803A0104880FB0243D217C2EB233280FB013091
S2140803B0C917C1EB203010440B4B984704460B4B2B
S2140803C09847054B58602046094B9847F8BD00BF2C
S2140803D06C040720D81A0800EC040720801A0800C6
S2140803E008050720AD8BDB68B917080061180800F8
S2140803F0AD180800B1F54D7F34D310B5A1F54D7290
S21408040040F232339A4212D9A1F2676240F232338E
S2140804109A4215D9A1F69A1240F231339A4218D95F
S214080420A1F6CD4140F2313399421DD910BD0F4B8C
S214080430984700220E4B0F4CA0470F4B984710BD0D
S2140804400A4B984700220D4B0A4CA0470A4B984780
S21408045010BD064B98470022094B064CA047064B92
S214080460984710BD0020704710BD00BFF510080063
S2140804700000D03FE1110800051608000000E03F24
S2140804800000E83F2DE9F04383B000212248234BC3
S21408049098470190019B4FF08062214B1A632148D0
S2140804A0214B98471F4D214C2846A04710F0807FC7
S2140804B0FAD01C4D0A2128461D4CA04780461D4BE5
S2140804C09847064607212846A047014630461A4F51
S2140804D0B84706464046194B98478146062128469F
S2140804E0A04701464846B84781464046144B9847B9
S2140804F0804605212846A04701464046B84706EBF1
S214080500090101440F48104B98474FF08062044B8E
S2140805105A6303B0BDE8F083000008401D070800D2
S21408052000100E4000000C40CD010800EB0108004A
S214080530DD010800F1010800F50308009D02080027
S2140805404903080000800C408F06080038B52520AF
S214080550124B9847124C0023124A13492046134D53
S214080560A84700231A4619462046114DA8470021D9
S2140805702046104B98470A2120460F4DA8470721CA
S2140805802046A84706212046A84705212046A84712
S214080590002211462046094B984738BDE10B080053
S2140805A000000C40002D3101007A030A61010800A2
S2140805B0B101080095010800D3010800A30108004E
S2140805C038B526200C4B98470C4C20460C4B9847C1
S2140805D0002120460B4B984700230122114620464F
S2140805E0094DA84701212046084B98470121204677
S2140805F0074B984738BD00BFE10B080000800C4049
S2140806007106080077060800AB060800930608007F
S214080610D906080010B51B200E4B98470E4C4FF411
S2140806208042002120460D4B984740F634020021B0
S21408063020460B4B98474FF000620A4B1A60102270
S21408064000212046084B984700212046074B98472C
S21408065010BD00BFE10B080000000840ED060800CA
S2140806600D07080000E100E0150708000507080068
S21408067001230360704729B9436823F010034360D9
S21408068000207047436843F010034360F8E70162B0
S21408069070474368012901D90120704723F498134D
S2140806A043EA014141600020704710B4446824F0D2
S2140806B07C5424F47F44090289B221434AB921F4C0
S2140806C000111B0603F07C530B434360002010BC4C
S2140806D0704741F40011F4E7012901D90120704759
S2140806E0012303FA01F101610020704710B4890163
S2140806F04318022444504FF0FF319962196A5A6031
S21408070010BC7047890105234350704700EB8111E0
S214080710CA61704700EB81114A62704700EB81118D
S214080720086A704708B50D4B98470D4B98470B203D
S2140807300C4CA0470C20A0470D20A0470E20A04731
S214080740094B4FF080621A61C3F8A020074B984700
S214080750074B9847074B9847FEE700BF79070800FE
S214080760D9070800E10B080000100E404D050800E8
S214080770C10508001506080010B50D480D4B98472A
S2140807803E2100200C4B98470C4CA0470028FCD074
S2140807900B4B98470B4A0C4B9A620C4CA047002808
S2140807A0FCD010200A4B98470A4B984710BD00BF4C
S2140807B000BD0105E90D08005D0B0800B10B080037
S2140807C0C10B0800013F0D2000060E40D10B0800A3
S2140807D0F90A0800D10C080010B54FF40042174B70
S2140807E05A600B20164CA0470C20A0470D20A047A7
S2140807F00E20A0474FF060513B20124CA0474FF008
S21408080060515520A0474FF060515620A0470E492A
S2140808106820A0470D495C20A0474FF000624FF4BF
S21408082040710B480B4B98474FF000612B20A047B0
S2140808304FF000612A20A04710BD00BF501A0E4096
S214080840E10B0800F90808007900002801000028D4
S214080850000E0E40C90908004264B1F1805F16D048
S2140808600BD849B1B1F1006F05D1036F016F0B408A
S21408087023EA0203036742607047B1F1405FFBD08A
S214080880B1F1605FF8D0B1F1205FF4D17047036F23
S21408089013430367EFE7416412F0010F14BF416684
S2140808A0016612F00A0F14BF0162416212F0020FCD
S2140808B007D112F0080F18BFC0F880104161016018
S2140808C07047C0F88010F9E710B4019C416444B939
S2140808D0016643B1016542B941630161016010BC1C
S2140808E070474166F5E74165F5E70163F5E7C06CD3
S2140808F07047806C7047000070B582B00D4643099B
S21408090003F5001303F207735C0201F0F043B3F13A
S214080910205F31D016D8B3F1006F1BD0B3F1805FDB
S21408092016D100F01F000126864032464FF080514F
S2140809302046224B984715F0010F14BF66662666B8
S214080940012017E0B3F1405F21D0B3F1605F1ED0FD
S21408095000200FE000F01F000126864032464FF0C8
S21408096000612046154B984715F0010F14BF6666C0
S2140809702666012002B070BD00F01F0101262A4637
S21408098006FA01F120460E4B98473046F2E705F086
S214080990605200F01F01012605EA06030093C5F31E
S2140809A08003B2F1605F14BF0022012206FA01F14B
S2140809B02046044CA0473046DCE700BF590808002C
S2140809C097080800C908080070B582B005460E46A4
S2140809D0144602F0F043B3F1205F27D011D8B3F1E4
S2140809E0006F16D0B3F1805F11D10A464FF08051E0
S2140809F0194B984714F0010F14BF6E662E66012037
S214080A0012E0B3F1405F15D0B3F1605F12D000205A
S214080A100AE00A464FF000610F4B984714F0010FA2
S214080A2014BF6E662E66012002B070BD0B4B984749
S214080A300120F9E704F0605204F001030093C4F3C0
S214080A408003B2F1605F14BF0022012231462846B7
S214080A50034CA0470120E7E7590808009708080054
S214080A60C9080800F8B504460E460C4B98470546D4
S214080A7020460B4B984705400FD00A4C01E010342F
S214080A805DB12068B042FAD161682942F7D0E368C0
S214080A909847636825EA0305F1E7F8BDEF080800FC
S214080AA0F30808000C05072008B50B210148024B7F
S214080AB0984708BD000E0E40650A080008B50C21C8
S214080AC00148024B984708BD00100E40650A08000A
S214080AD008B50D210148024B984708BD00120E4084
S214080AE0650A080008B50E210148024B984708BD5C
S214080AF000140E40650A0800174A136B23F07003AB
S214080B0018431063936E13F0080F0AD14FF400636E
S214080B1011498A6E12F0080F03D1013BF9D1012062
S214080B2070470D4A136B23F0030343F00203136365
S214080B30936E13F0080F0AD14FF4006306498A6EC5
S214080B4012F0080F05D1013BF9D1012070470020AB
S214080B5070470020704700BF00060E40C8B9114A0B
S214080B60136A090289B223F45C1323F0030343F4DF
S214080B705C1343F001030B431362936E13F0010FEB
S214080B80FBD0084A136A43F09B7343F4803313621E
S214080B90704704490B6A044A1A40044B13430B6215
S214080BA0704700BF00060E40FCFFC8FE0200370173
S214080BB0024B986E00F48030704700BF00060E4067
S214080BC04FF00052014B9A62704700BF00060E4075
S214080BD0024B986E00F00200704700BF00060E40F9
S214080BE02C281ED81F280CD8114B9A69012383403D
S214080BF0934318D0012303FA00F00D4B1861002028
S214080C00704720380A4BD3F80821012383409343C2
S214080C100BD0012303FA00F0054BC3F800010020AF
S214080C20704701207047002070470020704700BFBB
S214080C3000060E40FEE7000008B51C4B1C4A9A4208
S214080C4010D01C4B194A9A420CD2013B9B1A23F02F
S214080C50030304331344164951F8040B42F8040BF3
S214080C609A42F9D1144B154A9A420AD2013B9B1A6A
S214080C7023F0030304331344002142F8041B934271
S214080C80FBD10F4B23F0604222F07F020D498A60A9
S214080C9003F16043B3F5801F03D28B6843F000531B
S214080CA08B60094B9847094B9847FEE700000720DA
S214080CB0241B0800300407207C0507203004072082
S214080CC00000080000ED00E0ED1808002507080001
S214080CD03D4B1B6B03F00303032B0ED8DFE803F032
S214080CE0021C3838394B5B6913F0800F14BF4FF479
S214080CF000424FF4FA42364B1A60334B1B6B03F034
S214080D007003702B57D0304B1A6B3149C2F302125E
S214080D100B68D3400B6070472B4B1B6A13F0807F21
S214080D2003D02C4A2A4B1A60E7E72B4A284B1A604E
S214080D30254B1B6A03F07003102B05D0202BDCD143
S214080D40244A234B1A60D8E7244A214B1A60D4E772
S214080D501D4B1B6A13F0807F0CD01E4A1C4B1A6072
S214080D60194B1B6B03F00303022B16D01C4A184BB7
S214080D701A60C2E7184A164B1A60134B1B6A03F030
S214080D807003102B05D0202BEAD1124A104B1A609C
S214080D90E6E7124A0E4B1A60E2E70B4A916A926A35
S214080DA00B48C1F30A41036801FB0333D2B2B3FB15
S214080DB0F2F30360A1E7064A13680A49A1FB031386
S214080DC05B081360704700BF00060E40101A0E40FE
S214080DD000000720001BB70000093D0000127A003B
S214080DE0001C4E0EABAAAAAA1B4B984215D91B4B41
S214080DF0984219D91A4B98421ED91A4B984223D9A9
S214080E00194B984294BF4FF480634FF4A063174A77
S214080E10136002F50072136070470023134A1360CC
S214080E2002F50072136070474FF480730F4A136020
S214080E3002F50072136070474FF400730B4A136094
S214080E4002F50072136070474FF44073074A136048
S214080E5002F5007213607047BFEA21017FF0FA02BC
S214080E60FF8FD003FFB3C4047F4A5D05000A0E4017
S214080E7081F0004102E000BF83F0004330B54FEA3E
S214080E8041044FEA430594EA050F08BF90EA020FAB
S214080E901FBF54EA000C55EA020C7FEA645C7FEA3E
S214080EA0655C00F0E2804FEA5454D4EB5555B8BF61
S214080EB06D420CDD2C4480EA020281EA030382EAD2
S214080EC0000083EA010180EA020281EA0303362D64
S214080ED088BF30BD11F0004F4FEA01314FF4801C37
S214080EE04CEA113102D0404261EB410113F0004F49
S214080EF04FEA03334CEA133302D0524263EB430300
S214080F0094EA050F00F0A780A4F10104D5F1200E9D
S214080F100DDB02FA0EFC22FA05F2801841F10001F8
S214080F2003FA0EF2801843FA05F359410EE0A5F1CC
S214080F3020050EF1200E012A03FA0EFC28BF4CF0FD
S214080F40020C43FA05F3C01851EBE37101F00045B3
S214080F5007D54FF0000EDCF1000C7EEB00006EEBC0
S214080F600101B1F5801F1BD3B1F5001F0CD349084A
S214080F705FEA30004FEA3C0C04F101044FEA4452A1
S214080F8012F5800F80F09A80BCF1004F08BF5FEA28
S214080F90500C50F1000041EB045141EA050130BD08
S214080FA05FEA4C0C404141EB010111F4801FA4F1AB
S214080FB00104E9D191F0000F04BF01460020B1FA00
S214080FC081F308BF2033A3F10B03B3F120020CDA38
S214080FD00C3208DD02F1140CC2F10C0201FA0CF016
S214080FE021FA02F10CE002F11402D8BFC2F1200C7B
S214080FF001FA02F120FA0CFCDCBF41EA0C01904031
S214081000E41AA2BF01EB0451294330BD6FEA040479
S2140810101F3C1CDA0C340EDC04F11404C4F1200264
S21408102020FA04F001FA02F340EA030021FA04F376
S21408103045EA030130BDC4F10C04C4F1200220FACD
S21408104002F001FA04F340EA0300294630BD21FA0B
S21408105004F0294630BD94F0000F83F4801306BFD1
S21408106081F480110134013D4EE77FEA645C18BFC5
S2140810707FEA655C29D094EA050F08BF90EA020F5C
S21408108005D054EA000C04BF1946104630BD91EA54
S214081090030F1EBF0021002030BD5FEA545C05D157
S2140810A04000494128BF41F0004130BD14F5800496
S2140810B03CBF01F5801130BD01F0004545F0FE410A
S2140810C041F470014FF0000030BD7FEA645C1ABF3F
S2140810D0194610467FEA655C1CBF0B46024650EA76
S2140810E0013406BF52EA033591EA030F41F40021A2
S2140810F030BD00BF90F0000F04BF0021704730B528
S2140811004FF4806404F132044FF000054FF00001FC
S21408111050E700BF90F0000F04BF0021704730B5BD
S2140811204FF4806404F1320410F0004548BF404292
S2140811304FF000013EE700BF42004FEAE2014FEAE7
S21408114031014FEA02701FBF12F07F4393F07F4FC2
S21408115081F06051704792F0000F14BF93F07F4FF4
S214081160704730B54FF4607401F0004521F0004137
S21408117020E700BF50EA010208BF704730B54FF0BD
S21408118000050AE050EA010208BF704730B511F0C2
S214081190004502D5404261EB41014FF4806404F1FA
S2140811A032045FEA915C3FF4DCAE4FF003025FEA7C
S2140811B0DC0C18BF03325FEADC0C18BF033202EB04
S2140811C0DC02C2F1200300FA03FC20FA02F001FA5E
S2140811D003FE40EA0E0021FA02F11444C1E600BFFD
S2140811E070B54FF0FF0C4CF4E06C1CEA11541DBFB0
S2140811F01CEA135594EA0C0F95EA0C0F00F0DEF87B
S2140812002C4481EA030621EA4C5123EA4C5350EA5F
S214081210013518BF52EA033541F4801143F48013B0
S21408122038D0A0FB02CE4FF00005E1FB02E506F041
S2140812300042E0FB03E54FF00006E1FB03569CF096
S214081240000F18BF4EF0010EA4F1FF04B6F5007F9C
S21408125064F5407404D25FEA4E0E6D4146EB06060E
S21408126042EAC62141EA55514FEAC52040EA5E5097
S2140812704FEACE2EB4F1FD0C88BFBCF5E06F1ED841
S214081280BEF1004F08BF5FEA500E50F1000041EB78
S214081290045170BD06F0004646EA010140EA020025
S2140812A081EA0301B4EB5C04C2BFD4EB0C0541EA47
S2140812B0045170BD41F480114FF0000E013C00F35C
S2140812C0AB8014F1360FDEBF002001F0004170BD80
S2140812D0C4F10004203C35DA0C341BDC04F1140499
S2140812E0C4F1200500FA05F320FA04F001FA05F225
S2140812F040EA020001F0004221F0004110EBD370F2
S21408130021FA04F642EB06015EEA430E08BF20EA1D
S214081310D37070BDC4F10C04C4F1200500FA04F3C0
S21408132020FA05F001FA04F240EA020001F0004152
S21408133010EBD37041F100015EEA430E08BF20EAC5
S214081340D37070BDC4F1200500FA05F24EEA020E0D
S21408135020FA04F301FA05F243EA020321FA04F03C
S21408136001F0004121FA04F220EA020000EBD370F3
S2140813705EEA430E08BF20EAD37070BD94F0000FF3
S2140813800FD101F00046400041EB010111F4801F27
S21408139008BF013CF7D041EA060195F0000F18BFD8
S2140813A0704703F00046520043EB030313F4801F14
S2140813B008BF013DF7D043EA0603704794EA0C0FCE
S2140813C00CEA135518BF95EA0C0F0CD050EA4106E4
S2140813D018BF52EA4306D1D181EA030101F0004161
S2140813E04FF0000070BD50EA410606BF1046194689
S2140813F052EA430619D094EA0C0F02D150EA013695
S21408140013D195EA0C0F05D152EA03361CBF1046D5
S21408141019460AD181EA030101F0004141F0FE4174
S21408142041F470014FF0000070BD41F0FE4141F4F8
S214081430780170BD70B54FF0FF0C4CF4E06C1CEAF8
S21408144011541DBF1CEA135594EA0C0F95EA0C0FAD
S21408145000F0A7F8A4EB050481EA030E52EA033568
S2140814604FEA013100F088804FEA03334FF0805589
S21408147045EA131343EA12634FEA022245EA1115B6
S21408148045EA10654FEA00260EF000419D4208BF67
S214081490964244F1FD0404F5407402D25B084FEA14
S2140814A03202B61A65EB03055B084FEA32024FF4C0
S2140814B080104FF4002CB6EB020E75EB030E22BF1D
S2140814C0B61A754640EA0C005B084FEA3202B6EBDD
S2140814D0020E75EB030E22BFB61A754640EA5C008C
S2140814E05B084FEA3202B6EB020E75EB030E22BF1C
S2140814F0B61A754640EA9C005B084FEA3202B6EB1D
S214081500020E75EB030E22BFB61A754640EADC00DB
S21408151055EA060E18D04FEA051545EA16754FEA3D
S21408152006164FEAC30343EA52734FEAC2025FEA5B
S2140815301C1CC0D111F4801F0BD141EA00014FF0EA
S21408154000004FF0004CB6E711F4801F04BF0143BB
S2140815500020B4F1FD0C88BFBCF5E06F3FF6AFAED7
S214081560B5EB030C04BFB6EB020C5FEA500C50F167
S214081570000041EB045170BD0EF0004E4EEA1131EA
S21408158014EB5C04C2BFD4EB0C0541EA045170BDF1
S21408159041F480114FF0000E013C90E645EA060E35
S2140815A08DE60CEA135594EA0C0F08BF95EA0C0F63
S2140815B03FF43BAF94EA0C0F0AD150EA01347FF4AB
S2140815C034AF95EA0C0F7FF425AF104619462CE782
S2140815D095EA0C0F06D152EA03353FF4FDAE1046E5
S2140815E0194622E750EA410618BF52EA43067FF436
S2140815F0C5AE50EA41047FF40DAF52EA43057FF4C6
S214081600EBAE12E74A0011D212F5001211D20DD530
S2140816106FF47873B3EB62520ED44FEAC12343F0EB
S214081620004343EA505323FA02F070474FF0000095
S214081630704750EA013002D14FF0FF3070474FF044
S2140816400000704780F0004002E000BF81F00041D3
S21408165042001FBF5FEA410392EA030F7FEA226C4B
S2140816607FEA236C6AD04FEA1262D2EB1363C1BFDB
S214081670D218414048404140B8BF5B42192B88BF4A
S214081680704710F0004F40F4000020F07F4018BF6D
S214081690404211F0004F41F4000121F07F4118BF8D
S2140816A0494292EA030F3FD0A2F1010241FA03FC35
S2140816B010EB0C00C3F1200301FA03F100F000431D
S2140816C002D5494260EB4000B0F5000F13D3B0F1E5
S2140816D0807F06D340084FEA310102F10102FE2A54
S2140816E051D2B1F1004F40EBC25008BF20F00100C4
S2140816F040EA03007047490040EB000010F4000F72
S214081700A2F10102EDD1B0FA80FCACF1080CB2EB04
S2140817100C0200FA0CF0AABF00EBC2505242184363
S214081720BCBFD0401843704792F0000F81F4000108
S21408173006BF80F400000132013BB5E74FEA4103DB
S2140817407FEA226C18BF7FEA236C21D092EA030F47
S21408175004D092F0000F08BF0846704790EA010FC1
S2140817601CBF0020704712F07F4F04D1400028BFEE
S21408177040F00040704712F100723CBF00F50000D0
S214081780704700F0004343F0FE4040F40000704706
S2140817907FEA226216BF08467FEA236301464202B2
S2140817A006BF5FEA412390EA010F40F480007047C5
S2140817B04FF0000304E000BF10F0004348BF40426B
S2140817C05FEA000C08BF704743F0964301464FF0A7
S2140817D000001CE050EA010208BF70474FF0000303
S2140817E00AE000BF50EA010208BF704711F0004344
S2140817F002D5404261EB41015FEA010C02BF844614
S2140818000146002043F0B64308BFA3F18053A3F572
S2140818100003BCFA8CF2083AA3EBC25310DB01FAB9
S21408182002FC634400FA02FCC2F12002BCF1004F3D
S21408183020FA02F243EB020008BF20F001007047CE
S21408184002F1200201FA02FCC2F1200250EA4C0022
S21408185021FA02F243EB020008BF20EADC70704768
S2140818604FEA4002B2F1FE4F0FD34FF09E03B3EBA0
S21408187012620DD94FEA002343F0004310F0004FE0
S21408188023FA02F018BF404270474FF00000704736
S21408189012F1610F01D1420205D110F0004008BFD5
S2140818A06FF0004070474FF00000704742000ED2BD
S2140818B0B2F1FE4F0BD34FF09E03B3EB126209D47E
S2140818C04FEA002343F0004323FA02F070474FF034
S2140818D00000704712F1610F01D1420202D14FF0A9
S2140818E0FF3070474FF00000704700BF70B50F4ECE
S2140818F00F4D761BB61018BF002405D0013455F8D6
S214081900043B9847A642F9D10A4E0B4D00F0F8F86A
S214081910761BB61018BF002406D0013455F8043BD1
S2140819209847A642F9D170BD70BD00BF0C1B0800D1
S2140819300C1B0800141B08000C1B0800024B13B1F4
S214081940024800F005B87047000000005D1908005E
S214081950002301461A46184600F01AB838B50A4C4D
S2140819600A4D641BA4100AD004F18043013B05EB22
S2140819708305013C55F804399847002CF9D1BDE891
S214081980384000F0C7B800BF241B0800201B08001A
S2140819902DE9F047274C074626688846D6F848417A
S2140819A092469946002C3CD065681F2D1ADC05F136
S2140819B0010E7FB1012004EB8503C3F888A0D4F894
S2140819C0881100FA05F21143022FC4F88811C3F8EB
S2140819D0089120D00235C4F804E0002044F8258099
S2140819E0BDE8F087144B0BB34FF4C870AFF3008014
S2140819F00446D8B10020D6F848314FF0010E606092
S214081A0023600546C6F84841C4F88801C4F88C0126
S214081A10002FDFD0CEE7D4F88C311A43C4F88C21D7
S214081A20D8E706F5A674C6F84841BDE74FF0FF307C
S214081A30BDE8F087FC1A080000000000FFFFFFFF63
S214081A402B9E000085E1FEFF112901009945FFFF46
S214081A500643000024F5FFFF00000000FFFFFFFF1D
S214081A606A3C00007C9BFFFF5C50000057BDFFFFF0
S214081A709919000024F5FFFF00000000FFFFFFFF94
S214081A8096C3FFFF7C9BFFFFA4AFFFFF57BDFFFF7A
S214081A9067E6FFFF24F5FFFF00000000B400000023
S214081AA000000000E2FDFFFF000000001E0200002C
S214081AB0000000004CFFFFFF00000000B40000001C
S214081AC000000000E2FDFFFF000000001E0200000C
S214081AD0000000004CFFFFFF00000000B4000000FC
S214081AE000000000E2FDFFFF000000001E020000EC
S214081AF0000000004CFFFFFF000000000800072061
S214081B00F8B500BFF8BC08BC9E4670473D190800EB
S214081B1019010800F8B500BFF8BC08BC9E46704717
S208081B20F5000800B7
S214081B2400093D000000000000000000F402072041
S214081B345C030720C4030720000000000000000020
S214081B440000000000000000000000000000000084
S214081B540000000000000000000000000000000074
S214081B640000000000000000000000000000000064
S214081B740000000000000000000000000000000054
S214081B840000000000000000000000000000000044
S214081B940000000000000000000000000000000034
S214081BA40000000000000000000000000000000024
S214081BB40000000000000000000000000000000014
S214081BC40000000000000000000000000000000004
S214081BD401000000000000000E33CDAB34126DE6A1
S214081BE4ECDE05000B00000000000000000000000A
S214081BF400000000000000000000000000000000D4
S214081C0400000000000000000000000000000000C3
S214081C1400000000000000000000000000000000B3
S214081C2400000000000000000000000000000000A3
S804080C39AE
