:0200000280007C
:1000000040260720010F0800FD0E0800FD0E080025
:10001000FD0E0800FD0E0800FD0E080000000000A7
:10002000000000000000000000000000FD0E0800BD
:10003000FD0E080000000000FD0E0800FD0E080087
:10004000FD0E0800FD0E0800FD0E0800FD0E080064
:10005000FD0E0800FD0E0800FD0E0800FD0E080054
:10006000FD0E0800FD0E0800000000006D0D0800E8
:10007000810D0800950D0800A90D08000000000082
:1000800000000000FD0E0800FD0E0800FD0E080037
:10009000FD0E0800FD0E0800FD0E0800FD0E080014
:1000A000FD0E080000000000FD0E0800E901080038
:1000B000FD0E0800FD0E0800FD0E0800FD0E0800F4
:1000C000FD0E0800FD0E0800FD0E0800FD0E0800E4
:1000D000FD0E0800FD0E0800FD0E0800FD0E0800D4
:1000E000FD0E0800FD0E0800FD0E0800FD0E0800C4
:1000F000FD0E080010B5054C237833B9044B13B13D
:100100000448AFF300800123237010BD30040720A2
:1001100000000000541D0800084B10B51BB1084931
:100120000848AFF300800848036803B910BD074BC7
:10013000002BFBD0BDE81040184700BF00000000B6
:1001400034040720541D0800541D0800000000005E
:1001500030B4012404600025456040F20224C0F858
:100160002041C0F80451C0F8145144685200B1FB5A
:10017000F2F14A1E120292B223431A434260284609
:1001800030BC70474368090101F010010B43436024
:10019000704700BF4368D201D2B219431143416096
:1001A000704700BF10B44468090601F07061224333
:1001B0000A431B0703F040531343436010BC7047CE
:1001C00002230360704700BF012303FA01F10161BC
:1001D000704700BF0F299ABF503050F8210000200F
:1001E000704700BF006B7047F0B583B000211A481C
:1001F0001A4B98470190019B4FF08062184B1A638D
:100200001848194B9847174D184C2846A04710F02E
:10021000807FFAD00A211348154B98470646154BA4
:10022000984707463046144B984704463046134BD0
:10023000984705463046124B9847391901F5006139
:10024000294401440F48104B98474FF08062044BFB
:100250005A6303B0F0BD00BF00000840D509080094
:1002600000100E4000000C40C1010800E50108002C
:10027000D5010800F1030800A90608009102080052
:100280004905080000800C404509080000000000F6
:100290002DE9F843444B9A68DA60596899601A6806
:1002A0005A6018604FF47A78404C6268A568E5603F
:1002B000A2603F4F07FB01F108FB00103D4E86FB9B
:1002C0000013C017C0EBA3103B4B03FB05F33B49E6
:1002D00001FB023386FB0312DB17C3EBA213DFF82B
:1002E00008911844C847364DA8476060354B9A6856
:1002F000DA60596899601A685A601860324C62680E
:10030000A368E360A26007FB01F108FB001086FB15
:1003100000E1C017C0EBA1102C4901FB03F36FF003
:100320004D0101FB023386FB0312DB17C3EBA21363
:100330001844C847A8476060254B9A68DA60D3F82C
:1003400004E0C3F808E01A685A601860214C62683B
:10035000A168E160A26007FB0EF708FB007086FB56
:100360000073C017C0EBA3101B4B03FB01F36FF42A
:10037000127101FB023386FB0326DB17C3EBA613C6
:100380001844164B984706A3D3E90023144EB047F0
:10039000144B9847A8476060BDE8F883AFF300802E
:1003A0007B14AE47E17AB43F4C0407207C0407205D
:1003B00018FCFFFFD34D621024FDFFFF62FBFFFF1F
:1003C000A11B08005C0407208C04072075FDFFFFBB
:1003D0006C0407209C04072062FEFFFFF513080051
:1003E000C1140800E5180800F91A08000000000010
:1003F0002DE9F843464B9A68DA60596899601A68A3
:100400005A6018604FF47A78424C6268A568E560DB
:10041000A260414F07FB01F108FB00103F4E86FB35
:100420000013C017C0EBA3103D4B03FB05F340F2D4
:10043000CF7101FB023386FB0312DB17C3EBA21360
:10044000DFF800911844C847364DA8476060364B26
:100450009A68DA60596899601A685A601860334C73
:100460006268A368E360A26007FB01F108FB00106B
:1004700086FB00E1C017C0EBA1106FF4E07101FB37
:1004800003F340F2AD3101FB023386FB0312DB17AD
:10049000C3EBA2131844C847A8476060244B9A686E
:1004A000DA60D3F804E0C3F808E01A685A6018600C
:1004B000204C6268A168E160A26007FB0EF708FBB0
:1004C000007086FB0073C017C0EBA3106FF4B87305
:1004D00003FB01F34FF4AB6101FB023386FB032600
:1004E000DB17C3EBA6131844134B984706A3D3E9B5
:1004F0000023124EB047124B9847A8476060BDE8F2
:10050000F88300BFAFF300809A9999999999B93F00
:10051000AC040720DC04072018FCFFFFD34D621059
:1005200019FCFFFFA11B0800BC040720EC040720F6
:10053000CC040720FC040720F5130800C1140800B0
:10054000E5180800F91A08002DE9F843444B9A68A9
:10055000DA60596899601A685A6018604FF47A78BE
:10056000404C6268A568E560A2603F4F07FB01F15F
:1005700008FB00103D4E86FB0013C017C0EBA31014
:100580003B4B03FB05F33B4901FB023386FB0312A4
:10059000DB17C3EBA213DFF808911844C847364DA8
:1005A000A8476060354B9A68DA60596899601A68A4
:1005B0005A601860324C6268A368E360A26007FB6F
:1005C00001F108FB001086FB00E1C017C0EBA11091
:1005D0006FF4EE7101FB03F3A1F50E7101FB023321
:1005E00086FB0312DB17C3EBA2131844C847A847C6
:1005F0006060244B9A68DA60D3F804E0C3F808E03E
:100600001A685A601860204C6268A168E160A260B4
:1006100007FB0EF708FB007086FB0073C017C0EBEA
:10062000A3101A4B03FB01F3194901FB023386FBAC
:100630000326DB17C3EBA6131844164B984706A3F3
:10064000D3E90023144EB047144B9847A847606085
:10065000BDE8F883AFF300809A9999999999B93FC9
:100660000C0507203C05072018FCFFFFD34D621046
:1006700019FCFFFF31F8FFFFA11B08001C05072034
:100680004C0507202C0507205C05072062FEFFFFB4
:100690007AFAFFFFF5130800C1140800E5180800F6
:1006A000F91A0800000000002DE9F843424B9A684F
:1006B000DA60596899601A685A6018604FF47A785D
:1006C0003E4C6268A568E560A2603D4F07FB01F102
:1006D00008FB00103B4E86FB0013C017C0EBA310B5
:1006E000394B03FB05F340F29E4101FB023386FBCD
:1006F0000312DB17C3EBA213DFF8F8901844C847C6
:10070000324DA8476060324B9A68DA605968996048
:100710001A685A6018602F4C6268A368E360A26090
:1007200007FB01F108FB001086FB00E1C017C0EBDE
:10073000A110294901FB03F34E2101FB023386FB83
:100740000312DB17C3EBA2131844C847A847606025
:10075000224B9A68DA60596899601A685A60186082
:100760001F4C6268A368E360A26007FB01F708FB07
:10077000007086FB0071C017C0EBA11002EBC20233
:1007800002EB8212174901FB032386FB0326DB17CA
:10079000C3EBA6131844144B984705A3D3E90023D1
:1007A000124EB047124B9847A8476060BDE8F883E7
:1007B0007B14AE47E17AB43F6C0507209C05072007
:1007C00018FCFFFFD34D621024FDFFFFA11B0800A2
:1007D0007C050720AC05072075FDFFFF8C05072071
:1007E000BC05072062FEFFFFF5130800C1140800D6
:1007F000E5180800F91A080038B52520144B984769
:10080000144C0023144A15492046154DA8470023CF
:100810001A4619462046134DA84700212046124B80
:1008200098470A212046114DA84707212046A8478E
:1008300006212046A84705212046A8470421204636
:10084000A847002211462046094B984738BD00BFF3
:10085000A90E080000000C40002D3101007A030AA7
:1008600051010800A501080085010800C901080020
:100870009501080038B526200C4B98470C4C2046B3
:100880000C4B9847002120460B4B98470023012230
:1008900011462046094DA84701212046084B98479C
:1008A00001212046074B984738BD00BFA90E08001C
:1008B00000800C40250908002D0908006109080086
:1008C000490908009109080010B51B200E4B9847F4
:1008D0000E4C4FF48042002120460D4B984740F6C5
:1008E0003402002120460B4B98474FF000620A4B20
:1008F0001A60102200212046084B9847002120460C
:10090000074B984710BD00BFA90E08000000084023
:10091000A5090800C509080000E100E0CD090800AC
:10092000BD09080001230360704700BF21B143687F
:1009300043F01003436003E0436823F01003436077
:1009400000207047016270474368012906D823F4EC
:10095000981343EA0141416000207047012070472D
:1009600010B4446824F07C5424F47F44090289B212
:100970000C4312B144F4001401E024F400141B06EB
:1009800003F07C531C434460002010BC704700BF40
:10099000012905D8012303FA01F101610020704704
:1009A0000120704710B489014318022444504FF0CD
:1009B000FF319962196A5A6010BC7047890105239A
:1009C0004350704700EB8111CA61704700EB811101
:1009D0004A62704700EB8111086A704708B50D4BF9
:1009E00098470D4B98470B200C4CA0470C20A04774
:1009F0000D20A0470E20A047094B4FF080621A61DE
:100A0000C3F8A020074B9847074B9847074B9847D8
:100A1000FEE700BF310A0800910A0800A90E08008D
:100A200000100E40F907080075080800C908080002
:100A300010B50D480D4B98473E2100200C4B9847B0
:100A40000C4CA0470028FCD00B4B98470B4A0C4B92
:100A50009A620C4CA0470028FCD010200A4B984703
:100A60000A4B984710BD00BF00BD0105C910080022
:100A7000250E0800790E0800890E0800013F0D20A0
:100A800000060E40990E0800BD0D0800AD0F0800CD
:100A900010B54FF40042174B5A600B20164CA0477C
:100AA0000C20A0470D20A0470E20A0474FF060511A
:100AB0003B20124CA0474FF060515520A0474FF00B
:100AC00060515620A0470E496820A0470D495C2080
:100AD000A0474FF000624FF440710B480B4B984712
:100AE0004FF000612B20A0474FF000612A20A04763
:100AF00010BD00BF501A0E40A90E0800B50B08002B
:100B00007900002801000028000E0E40890C080022
:100B10004264B1F1805F16D004D8C1B1B1F1006F69
:100B20000AD013E0B1F1405F11D0B1F1605F0ED097
:100B3000B1F1205F0AD17047016F036F0B4023EAC8
:100B40000203036702E0036F1343036742607047C9
:100B5000416412F0010F14BF4166016612F00A0FE2
:100B600014BF0162416212F0020F02D0C0F880107F
:100B700004E012F0080F18BFC0F880104161016056
:100B8000704700BF10B44164019C0CB1416600E0A5
:100B900001660BB1016500E041650AB1016300E047
:100BA00041630161016010BC704700BFC06C7047B9
:100BB000806C704770B582B00D46430903F5001391
:100BC00003F207735C0201F0F043B3F1205F30D011
:100BD00006D8B3F1006F0AD0B3F1805F18D049E0B6
:100BE000B3F1405F30D0B3F1605F2DD042E000F050
:100BF0001F000126864032464FF0006120461F4B01
:100C0000984715F0010F14BF66662666012032E092
:100C100000F01F000126864032464FF080512046EA
:100C2000164B984715F0010F14BF66662666012023
:100C300021E000F01F0101262A4606FA01F12046B4
:100C40000F4B9847304616E005F0605200F01F0148
:100C5000012605EA06030093C5F38003B2F1605F45
:100C600014BF0022012206FA01F12046054CA047DC
:100C7000304600E0002002B070BD00BF110B08003C
:100C8000510B0800850B080070B582B005460E4672
:100C9000144602F0F043B3F1205F26D006D8B3F13A
:100CA000006F0AD0B3F1805F13D034E0B3F1405F3E
:100CB0001FD0B3F1605F1CD02DE00A464FF00061F9
:100CC000164B984714F0010F14BF6E662E66012074
:100CD00022E00A464FF08051104B984714F0010F64
:100CE00014BF6E662E66012016E00D4B984701205A
:100CF00012E004F0605204F001030093C4F3800397
:100D0000B2F1605F14BF0022012231462846054C33
:100D1000A047012000E0002002B070BD110B0800C8
:100D2000510B0800850B0800F8B504460E460C4B25
:100D30009847054620460B4B984705400FD00A4C74
:100D40002368B34208D16168294205D0E368304680
:100D50009847636825EA03051034002DF0D1F8BDEB
:100D6000AD0B0800B10B0800CC05072008B50B211E
:100D70000148024B984708BD000E0E40290D08009F
:100D800008B50C210148024B984708BD00100E40E1
:100D9000290D080008B50D210148024B984708BDF0
:100DA00000120E40290D080008B50E210148024B23
:100DB000984708BD00140E40290D0800184A136B0F
:100DC00023F0700318431063936E13F0080F03D0E1
:100DD00009E0013B03D11EE04FF4006310498A6E25
:100DE00012F0080FF5D00E4A136B23F0030343F003
:100DF00002031363906E10F0080004D000207047C7
:100E0000013B03D109E04FF4006305498A6E12F0FB
:100E1000080FF5D07047012070470120704700BFD0
:100E200000060E4038B111490B6A114A1A40114BA5
:100E300013430B6270470D48026A090289B222F41B
:100E40005C1323F0030343F45C1343F001030B43EF
:100E500003620246936E13F0010FFBD0034A136A3C
:100E600043F09B7343F480331362704700060E40D7
:100E7000FCFFC8FE02003701024B986E00F4803080
:100E8000704700BF00060E404FF00052014B9A62BF
:100E9000704700BF00060E40024B986E00F0020043
:100EA000704700BF00060E402C281ED81F280CD803
:100EB000114B9A6901238340934318D0012303FA0D
:100EC00000F00D4B18610020704720380A4BD3F812
:100ED00008210123834093430BD0012303FA00F040
:100EE000054BC3F800010020704701207047002027
:100EF00070470020704700BF00060E40FEE700BFAD
:100F000008B51E4B1E4A9A4203D01E4B1B4A9A42FA
:100F100004D31D4B1D4A9A420FD31AE017491C4BAC
:100F20005B1A23F003030433154A134452F8040BED
:100F300041F8040B9A42F9D1EBE7164B164AD21A44
:100F400022F003021A44043B002143F8041B93429D
:100F5000FBD1124B23F0604222F07F0210498A60DD
:100F600003F16043B3F5801F03D28B6843F0005355
:100F70008B600C4B98470C4B9847FEE7000007200E
:100F8000541D0800300407203C06072030040720C9
:100F90002F040720340407203F0607200000080024
:100FA00000ED00E0ED1B0800DD0908003E4B1B6B67
:100FB00003F00303032B5FD8DFE803F0020E2B2BB3
:100FC0003A4B5B6913F0800F14BF4FF400424FF4AB
:100FD000FA42374B1A604FE0334B1B6A13F0807FA5
:100FE00003D0344A324B1A6046E0334A304B1A6021
:100FF0002D4B1B6A03F07003102B02D0202B04D062
:101000003AE02E4A2A4B1A6036E02A4A284B1A60E8
:1010100032E0254B1B6A13F0807F03D0254A244B16
:101020001A6012E0244A224B1A601F4B1B6A03F01D
:101030007003102B02D0202B04D006E01F4A1C4B5B
:101040001A6002E01B4A1A4B1A60174B1B6B03F025
:101050000303022B0DD1144A936A926A1448C3F316
:101060000A41036801FB0333D2B2B3FBF2F303601E
:1010700002E0134A0E4B1A600B4B1B6B03F070031C
:10108000702B07D10A4A13680E49A1FB03135B08B2
:1010900013607047044B1B6B0549C3F302120B68C6
:1010A000D3400B60704700BF00060E40101A0E4080
:1010B00000000720001BB70000093D0000127A0065
:1010C000001C4E0EABAAAAAA1B4B984206D80023BE
:1010D0001A4A136002F5007213607047184B984269
:1010E00007D84FF48073154A136002F5007213603D
:1010F0007047144B984207D84FF400730F4A13609F
:1011000002F50072136070470F4B984207D84FF4F6
:1011100040730A4A136002F50072136070470B4B6C
:10112000984294BF4FF480634FF4A063034A136066
:1011300002F5007213607047BFEA2101000A0E40F9
:101140007FF0FA02FF8FD003FFB3C4047F4A5D052E
:1011500081F0004102E000BF83F0004330B54FEA68
:1011600041044FEA430594EA050F08BF90EA020FD5
:101170001FBF54EA000C55EA020C7FEA645C7FEA68
:10118000655C00F0E2804FEA5454D4EB5555B8BF8B
:101190006D420CDD2C4480EA020281EA030382EAFC
:1011A000000083EA010180EA020281EA0303362D8E
:1011B00088BF30BD11F0004F4FEA01314FF4801C61
:1011C0004CEA113102D0404261EB410113F0004F73
:1011D0004FEA03334CEA133302D0524263EB43032A
:1011E00094EA050F00F0A780A4F10104D5F1200EC8
:1011F0000DDB02FA0EFC22FA05F2801841F1000123
:1012000003FA0EF2801843FA05F359410EE0A5F1F6
:1012100020050EF1200E012A03FA0EFC28BF4CF027
:10122000020C43FA05F3C01851EBE37101F00045DD
:1012300007D54FF0000EDCF1000C7EEB00006EEBEA
:101240000101B1F5801F1BD3B1F5001F0CD3490874
:101250005FEA30004FEA3C0C04F101044FEA4452CB
:1012600012F5800F80F09A80BCF1004F08BF5FEA52
:10127000500C50F1000041EB045141EA050130BD32
:101280005FEA4C0C404141EB010111F4801FA4F1D5
:101290000104E9D191F0000F04BF01460020B1FA2A
:1012A00081F308BF2033A3F10B03B3F120020CDA62
:1012B0000C3208DD02F1140CC2F10C0201FA0CF040
:1012C00021FA02F10CE002F11402D8BFC2F1200CA5
:1012D00001FA02F120FA0CFCDCBF41EA0C0190405B
:1012E000E41AA2BF01EB0451294330BD6FEA0404A4
:1012F0001F3C1CDA0C340EDC04F11404C4F120028F
:1013000020FA04F001FA02F340EA030021FA04F3A0
:1013100045EA030130BDC4F10C04C4F1200220FAF7
:1013200002F001FA04F340EA0300294630BD21FA35
:1013300004F0294630BD94F0000F83F4801306BFFB
:1013400081F480110134013D4EE77FEA645C18BFEF
:101350007FEA655C29D094EA050F08BF90EA020F86
:1013600005D054EA000C04BF1946104630BD91EA7E
:10137000030F1EBF0021002030BD5FEA545C05D181
:101380004000494128BF41F0004130BD14F58004C0
:101390003CBF01F5801130BD01F0004545F0FE4134
:1013A00041F470014FF0000030BD7FEA645C1ABF69
:1013B000194610467FEA655C1CBF0B46024650EAA0
:1013C000013406BF52EA033591EA030F41F40021CC
:1013D00030BD00BF90F0000F04BF0021704730B552
:1013E0004FF4806404F132044FF000054FF0000127
:1013F00050E700BF90F0000F04BF0021704730B5E8
:101400004FF4806404F1320410F0004548BF4042BC
:101410004FF000013EE700BF42004FEAE2014FEA11
:1014200031014FEA02701FBF12F07F4393F07F4FEC
:1014300081F06051704792F0000F14BF93F07F4F1E
:10144000704730B54FF4607401F0004521F0004161
:1014500020E700BF50EA010208BF704730B54FF0E7
:1014600000050AE050EA010208BF704730B511F0EC
:10147000004502D5404261EB41014FF4806404F124
:1014800032045FEA915C3FF4DCAE4FF003025FEAA6
:10149000DC0C18BF03325FEADC0C18BF033202EB2E
:1014A000DC02C2F1200300FA03FC20FA02F001FA88
:1014B00003FE40EA0E0021FA02F11444C1E600BF27
:1014C00070B54FF0FF0C4CF4E06C1CEA11541DBFDA
:1014D0001CEA135594EA0C0F95EA0C0F00F0DEF8A5
:1014E0002C4481EA030621EA4C5123EA4C5350EA8A
:1014F000013518BF52EA033541F4801143F48013DB
:1015000038D0A0FB02CE4FF00005E1FB02E506F06B
:101510000042E0FB03E54FF00006E1FB03569CF0C0
:10152000000F18BF4EF0010EA4F1FF04B6F5007FC6
:1015300064F5407404D25FEA4E0E6D4146EB060638
:1015400042EAC62141EA55514FEAC52040EA5E50C1
:101550004FEACE2EB4F1FD0C88BFBCF5E06F1ED86B
:10156000BEF1004F08BF5FEA500E50F1000041EBA2
:10157000045170BD06F0004646EA010140EA02004F
:1015800081EA0301B4EB5C04C2BFD4EB0C0541EA71
:10159000045170BD41F480114FF0000E013C00F386
:1015A000AB8014F1360FDEBF002001F0004170BDAA
:1015B000C4F10004203C35DA0C341BDC04F11404C3
:1015C000C4F1200500FA05F320FA04F001FA05F24F
:1015D00040EA020001F0004221F0004110EBD3701C
:1015E00021FA04F642EB06015EEA430E08BF20EA48
:1015F000D37070BDC4F10C04C4F1200500FA04F3EB
:1016000020FA05F001FA04F240EA020001F000417C
:1016100010EBD37041F100015EEA430E08BF20EAEF
:10162000D37070BDC4F1200500FA05F24EEA020E37
:1016300020FA04F301FA05F243EA020321FA04F066
:1016400001F0004121FA04F220EA020000EBD3701D
:101650005EEA430E08BF20EAD37070BD94F0000F1D
:101660000FD101F00046400041EB010111F4801F51
:1016700008BF013CF7D041EA060195F0000F18BF02
:10168000704703F00046520043EB030313F4801F3E
:1016900008BF013DF7D043EA0603704794EA0C0FF8
:1016A0000CEA135518BF95EA0C0F0CD050EA41060E
:1016B00018BF52EA4306D1D181EA030101F000418B
:1016C0004FF0000070BD50EA410606BF10461946B3
:1016D00052EA430619D094EA0C0F02D150EA0136BF
:1016E00013D195EA0C0F05D152EA03361CBF104600
:1016F00019460AD181EA030101F0004141F0FE419F
:1017000041F470014FF0000070BD41F0FE4141F422
:10171000780170BD70B54FF0FF0C4CF4E06C1CEA22
:1017200011541DBF1CEA135594EA0C0F95EA0C0FD7
:1017300000F0A7F8A4EB050481EA030E52EA033592
:101740004FEA013100F088804FEA03334FF08055B3
:1017500045EA131343EA12634FEA022245EA1115E0
:1017600045EA10654FEA00260EF000419D4208BF91
:10177000964244F1FD0404F5407402D25B084FEA3E
:101780003202B61A65EB03055B084FEA32024FF4EA
:1017900080104FF4002CB6EB020E75EB030E22BF47
:1017A000B61A754640EA0C005B084FEA3202B6EB07
:1017B000020E75EB030E22BFB61A754640EA5C00B6
:1017C0005B084FEA3202B6EB020E75EB030E22BF46
:1017D000B61A754640EA9C005B084FEA3202B6EB47
:1017E000020E75EB030E22BFB61A754640EADC0006
:1017F00055EA060E18D04FEA051545EA16754FEA68
:1018000006164FEAC30343EA52734FEAC2025FEA85
:101810001C1CC0D111F4801F0BD141EA00014FF014
:1018200000004FF0004CB6E711F4801F04BF0143E5
:101830000020B4F1FD0C88BFBCF5E06F3FF6AFAE01
:10184000B5EB030C04BFB6EB020C5FEA500C50F191
:10185000000041EB045170BD0EF0004E4EEA113114
:1018600014EB5C04C2BFD4EB0C0541EA045170BD1B
:1018700041F480114FF0000E013C90E645EA060E5F
:101880008DE60CEA135594EA0C0F08BF95EA0C0F8D
:101890003FF43BAF94EA0C0F0AD150EA01347FF4D5
:1018A00034AF95EA0C0F7FF425AF104619462CE7AC
:1018B00095EA0C0F06D152EA03353FF4FDAE10460F
:1018C000194622E750EA410618BF52EA43067FF460
:1018D000C5AE50EA41047FF40DAF52EA43057FF4F0
:1018E000EBAE12E74FEA4102B2F1E04324BFB3F599
:1018F000001CDCF1FE5C0DD901F0004C4FEAC00287
:101900004CEA5070B2F1004F40EB830008BF20F06A
:101910000100704711F0804F21D113F13872BCBF24
:1019200001F00040704741F480114FEA5252C2F179
:101930001802C2F1200C10FA0CF320FA02F018BFC2
:1019400040F001004FEAC1234FEAD32303FA0CFC15
:1019500040EA0C0023FA02F34FEA4303CCE77FEAA4
:10196000625307D150EA01331EBF4FF0FE4040F4EE
:101970004000704701F0004040F0FE4040F400009D
:10198000704700BF80F0004002E000BF81F00041DE
:1019900042001FBF5FEA410392EA030F7FEA226C15
:1019A0007FEA236C6AD04FEA1262D2EB1363C1BFA5
:1019B000D218414048404140B8BF5B42192B88BF14
:1019C000704710F0004F40F4000020F07F4018BF37
:1019D000404211F0004F41F4000121F07F4118BF57
:1019E000494292EA030F3FD0A2F1010241FA03FCFF
:1019F00010EB0C00C3F1200301FA03F100F00043E7
:101A000002D5494260EB4000B0F5000F13D3B0F1AE
:101A1000807F06D340084FEA310102F10102FE2A1D
:101A200051D2B1F1004F40EBC25008BF20F001008D
:101A300040EA03007047490040EB000010F4000F3B
:101A4000A2F10102EDD1B0FA80FCACF1080CB2EBCE
:101A50000C0200FA0CF0AABF00EBC250524218432D
:101A6000BCBFD0401843704792F0000F81F40001D2
:101A700006BF80F400000132013BB5E74FEA4103A5
:101A80007FEA226C18BF7FEA236C21D092EA030F11
:101A900004D092F0000F08BF0846704790EA010F8B
:101AA0001CBF0020704712F07F4F04D1400028BFB8
:101AB00040F00040704712F100723CBF00F500009A
:101AC000704700F0004343F0FE4040F400007047D0
:101AD0007FEA226216BF08467FEA2363014642027C
:101AE00006BF5FEA412390EA010F40F4800070478F
:101AF0004FF0000304E000BF10F0004348BF404235
:101B00005FEA000C08BF704743F0964301464FF070
:101B100000001CE050EA010208BF70474FF00003CC
:101B20000AE000BF50EA010208BF704711F000430D
:101B300002D5404261EB41015FEA010C02BF8446DD
:101B40000146002043F0B64308BFA3F18053A3F53C
:101B50000003BCFA8CF2083AA3EBC25310DB01FA83
:101B600002FC634400FA02FCC2F12002BCF1004F07
:101B700020FA02F243EB020008BF20F00100704798
:101B800002F1200201FA02FCC2F1200250EA4C00EC
:101B900021FA02F243EB020008BF20EADC70704732
:101BA0004FEA4002B2F1FE4F0FD34FF09E03B3EB6A
:101BB00012620DD94FEA002343F0004310F0004FAA
:101BC00023FA02F018BF404270474FF00000704700
:101BD00012F1610F01D1420205D110F0004008BF9F
:101BE0006FF0004070474FF00000704770B50F4E27
:101BF0000F4D761BB61018BF002405D0013455F8E0
:101C0000043B9847A642F9D10A4E0B4D00F090F8DC
:101C1000761BB61018BF002406D0013455F8043BDB
:101C20009847A642F9D170BD70BD00BF3C1D0800A9
:101C30003C1D0800441D08003C1D0800024B13B168
:101C4000024800F005B87047000000005D1C080065
:101C5000002301461A46184600F014B838B5074D5F
:101C6000074C2C1BA41005D0013C55F8043D9847A7
:101C7000002CF9D1BDE8384000F064B8541D0800CC
:101C8000501D08002DE9F047254C0646256888467A
:101C9000D5F8484192469946C4B360681F2817DCBE
:101CA000411C76B104EB8003C3F888A0D4F88851B6
:101CB000012282401543022EC4F88851C3F80891CE
:101CC0001ED0831C6160002044F82380BDE8F087AB
:101CD000144B03B34FF4C870AFF300800446D0B187
:101CE000D5F84831002784E888003846C5F84841CF
:101CF0000121C4F88871C4F88C71002EE1D0D1E7BD
:101D0000D4F88C311A43C4F88C21DAE705F5A674AF
:101D1000C5F84841C1E74FF0FF30BDE8F08700BF8C
:101D20002C1D0800000000004300000008000720F0
:101D3000F8B500BFF8BC08BC9E4670473D1C0800C3
:101D400019010800F8B500BFF8BC08BC9E467047F2
:041D5000F500080092
:101D540000093D000000000000000000F40207201C
:101D64005C030720C40307200000000000000000FB
:101D7400000000000000000000000000000000005F
:101D8400000000000000000000000000281D080002
:101D9400000000000000000000000000000000003F
:101DA400000000000000000000000000000000002F
:101DB400000000000000000000000000000000001F
:101DC400000000000000000000000000000000000F
:101DD40000000000000000000000000000000000FF
:101DE40000000000000000000000000000000000EF
:101DF40000000000000000000000000000000000DF
:101E040001000000000000000E33CDAB34126DE67B
:101E1400ECDE05000B0000000000000000000000E4
:101E240000000000000000000000000000000000AE
:101E3400000000000000000000000000000000009E
:101E4400000000000000000000000000000000008E
:101E5400000000000000000000000000000000007E
:0400000380000F0169
:00000001FF
