:0200000280007C
:1000000080250720710B08006D0B08006D0B0800A0
:100010006D0B08006D0B08006D0B08000000000060
:100020000000000000000000000000006D0B080050
:100030006D0B0800000000006D0B08006D0B080040
:100040006D0B08006D0B08006D0B08006D0B0800B0
:100050006D0B08006D0B08006D0B08006D0B0800A0
:100060006D0B08006D0B080000000000DD090800A2
:10007000F1090800050A0800190A0800000000003C
:10008000000000006D0B08006D0B08006D0B0800F0
:100090006D0B08006D0B08006D0B08006D0B080060
:1000A0006D0B0800000000006D0B0800E103080064
:1000B0006D0B08006D0B08006D0B08006D0B080040
:1000C0006D0B08006D0B08006D0B08006D0B080030
:1000D0006D0B08006D0B08006D0B08006D0B080020
:1000E0006D0B08006D0B08006D0B08006D0B080010
:1000F0006D0B080010B5054C237833B9044B13B1D0
:100100000448AFF300800123237010BD30040720A2
:100110000000000090120800084B10B51BB1084900
:100120000848AFF300800848036803B910BD074BC7
:10013000002BFBD0BDE81040184700BF00000000B6
:1001400034040720901208009012080000000000FC
:1001500030B4012404600025456040F20224C0F858
:100160002041C0F80451C0F8145144685200B1FB5A
:10017000F2F14A1E120292B223431A434260284609
:1001800030BC70474368090101F010010B43436024
:10019000704700BF4368D201D2B219431143416096
:1001A000704700BF10B44468090601F07061224333
:1001B0000A431B0703F040531343436010BC7047CE
:1001C00002230360704700BF012303FA01F10161BC
:1001D000704700BF0F299ABF503050F8210000200F
:1001E000704700BF006B704770B5204901F11C05D6
:1001F0002B4653F8042D5A608B42FAD11B4B43F81F
:1002000004091B49002253F8040F51F8044F04FB62
:1002100000229D42F7D11749174801F11C03002421
:1002200051F8045F50F8046F06FB05449942F7D17A
:10023000124853F8041D59608342FAD1104880FBDC
:100240000213D217C2EB233280FB0430E417C4EB55
:10025000203010440B4B984704460B4B9847054BF6
:1002600058602046094B984770BD00BFCC0407205A
:1002700020120800EC04072004120800F0040720F4
:10028000AD8BDB68350F0800DD0F08002910080072
:1002900070B5204901F11C052B4653F8042D5A6016
:1002A0008B42FAD11B4B43F804091B49002253F837
:1002B000040F51F8044F04FB00229D42F7D1174967
:1002C000174801F11C03002451F8045F50F8046F33
:1002D00006FB05449942F7D1124853F8041D5960B2
:1002E0008342FAD1104880FB0213D217C2EB2332AB
:1002F00080FB0430E417C4EB203010440B4B9847CC
:1003000004460B4B9847054B58602046094B9847CD
:1003100070BD00BF8C040720E01108004C040720CA
:10032000A411080050040720AD8BDB68350F0800CE
:10033000DD0F08002910080070B5204901F11C05E7
:100340002B4653F8042D5A608B42FAD11B4B43F8CD
:1003500004091B49002253F8040F51F8044F04FB11
:1003600000229D42F7D11749174801F11C030024D0
:1003700051F8045F50F8046F06FB05449942F7D129
:10038000124853F8041D59608342FAD1104880FB8B
:100390000213D217C2EB233280FB0430E417C4EB04
:1003A000203010440B4B984704460B4B9847054BA5
:1003B00058602046094B984770BD00BFAC04072029
:1003C000401208006C040720C411080070040720C4
:1003D000AD8BDB68350F0800DD0F08002910080021
:1003E00070B582B000211648164B98470190019BCA
:1003F0004FF08062144B1A631448154B9847134D05
:10040000144C2846A04710F0807FFAD00A210F48EC
:10041000114B98470546114B984706462846104B06
:100420009847044628460F4B9847311901440E4817
:100430000E4B98474FF08062034B5A6302B070BD79
:10044000000008404506080000100E4000000C4067
:10045000C1010800E5010800D5010800E901080014
:10046000910208003903080000800C40B50508001F
:1004700038B52520124B9847124C0023124A1349D5
:100480002046134DA84700231A4619462046114D11
:10049000A84700212046104B98470A2120460F4DBF
:1004A000A84707212046A84706212046A84705213E
:1004B0002046A847002211462046094B984738BDE0
:1004C000190B080000000C40002D3101007A030ACE
:1004D00051010800A501080085010800C9010800B4
:1004E0009501080038B526200C4B98470C4C204647
:1004F0000C4B9847002120460B4B984700230122C4
:1005000011462046094DA84701212046084B98472F
:1005100001212046074B984738BD00BF190B080042
:1005200000800C40950508009D050800D1050800D5
:10053000B90508000106080010B51B200E4B9847AE
:100540000E4C4FF48042002120460D4B984740F658
:100550003402002120460B4B98474FF000620A4BB3
:100560001A60102200212046084B9847002120469F
:10057000074B984710BD00BF190B0800000008404A
:10058000150608003506080000E100E03D060800F9
:100590002D06080001230360704700BF21B14368A6
:1005A00043F01003436003E0436823F0100343600B
:1005B00000207047016270474368012906D823F480
:1005C000981343EA014141600020704701207047C1
:1005D00010B4446824F07C5424F47F44090289B2A6
:1005E0000C4312B144F4001401E024F400141B067F
:1005F00003F07C531C434460002010BC704700BFD4
:10060000012905D8012303FA01F101610020704797
:100610000120704710B489014318022444504FF060
:10062000FF319962196A5A6010BC7047890105232D
:100630004350704700EB8111CA61704700EB811194
:100640004A62704700EB8111086A704708B50D4B8C
:1006500098470D4B98470B200C4CA0470C20A04707
:100660000D20A0470E20A047094B4FF080621A6171
:10067000C3F8A020074B9847074B9847074B98476C
:10068000FEE700BFA106080001070800190B0800DB
:1006900000100E4071040800E50408003905080048
:1006A00010B50D480D4B98473E2100200C4B984744
:1006B0000C4CA0470028FCD00B4B98470B4A0C4B26
:1006C0009A620C4CA0470028FCD010200A4B984797
:1006D0000A4B984710BD00BF00BD0105390D080049
:1006E000950A0800E90A0800F90A0800013F0D20F0
:1006F00000060E40090B08002D0A08001D0C08001A
:1007000010B54FF40042174B5A600B20164CA0470F
:100710000C20A0470D20A0470E20A0474FF06051AD
:100720003B20124CA0474FF060515520A0474FF09E
:1007300060515620A0470E496820A0470D495C2013
:10074000A0474FF000624FF440710B480B4B9847A5
:100750004FF000612B20A0474FF000612A20A047F6
:1007600010BD00BF501A0E40190B080025080800E4
:100770007900002801000028000E0E40F90808004A
:100780004264B1F1805F16D004D8C1B1B1F1006FFD
:100790000AD013E0B1F1405F11D0B1F1605F0ED02B
:1007A000B1F1205F0AD17047016F036F0B4023EA5C
:1007B0000203036702E0036F13430367426070475D
:1007C000416412F0010F14BF4166016612F00A0F76
:1007D00014BF0162416212F0020F02D0C0F8801013
:1007E00004E012F0080F18BFC0F8801041610160EA
:1007F000704700BF10B44164019C0CB1416600E039
:1008000001660BB1016500E041650AB1016300E0DA
:1008100041630161016010BC704700BFC06C70474C
:10082000806C704770B582B00D46430903F5001324
:1008300003F207735C0201F0F043B3F1205F30D0A4
:1008400006D8B3F1006F0AD0B3F1805F18D049E049
:10085000B3F1405F30D0B3F1605F2DD042E000F0E3
:100860001F000126864032464FF0006120461F4B94
:10087000984715F0010F14BF66662666012032E026
:1008800000F01F000126864032464FF0805120467E
:10089000164B984715F0010F14BF666626660120B7
:1008A00021E000F01F0101262A4606FA01F1204648
:1008B0000F4B9847304616E005F0605200F01F01DC
:1008C000012605EA06030093C5F38003B2F1605FD9
:1008D00014BF0022012206FA01F12046054CA04770
:1008E000304600E0002002B070BD00BF8107080064
:1008F000C1070800F507080070B582B005460E462E
:10090000144602F0F043B3F1205F26D006D8B3F1CD
:10091000006F0AD0B3F1805F13D034E0B3F1405FD1
:100920001FD0B3F1605F1CD02DE00A464FF000618C
:10093000164B984714F0010F14BF6E662E66012007
:1009400022E00A464FF08051104B984714F0010FF7
:1009500014BF6E662E66012016E00D4B98470120ED
:1009600012E004F0605204F001030093C4F380032A
:10097000B2F1605F14BF0022012231462846054CC7
:10098000A047012000E0002002B070BD81070800F0
:10099000C1070800F5070800F8B504460E460C4BE1
:1009A0009847054620460B4B984705400FD00A4C08
:1009B0002368B34208D16168294205D0E368304614
:1009C0009847636825EA03051034002DF0D1F8BD7F
:1009D0001D080800210808000C05072008B50B2198
:1009E0000148024B984708BD000E0E4099090800C7
:1009F00008B50C210148024B984708BD00100E4075
:100A00009909080008B50D210148024B984708BD17
:100A100000120E409909080008B50E210148024B4A
:100A2000984708BD00140E4099090800184A136B36
:100A300023F0700318431063936E13F0080F03D074
:100A400009E0013B03D11EE04FF4006310498A6EB8
:100A500012F0080FF5D00E4A136B23F0030343F096
:100A600002031363906E10F0080004D0002070475A
:100A7000013B03D109E04FF4006305498A6E12F08F
:100A8000080FF5D07047012070470120704700BF64
:100A900000060E4038B111490B6A114A1A40114B39
:100AA00013430B6270470D48026A090289B222F4AF
:100AB0005C1323F0030343F45C1343F001030B4383
:100AC00003620246936E13F0010FFBD0034A136AD0
:100AD00043F09B7343F480331362704700060E406B
:100AE000FCFFC8FE02003701024B986E00F4803014
:100AF000704700BF00060E404FF00052014B9A6253
:100B0000704700BF00060E40024B986E00F00200D6
:100B1000704700BF00060E402C281ED81F280CD896
:100B2000114B9A6901238340934318D0012303FAA0
:100B300000F00D4B18610020704720380A4BD3F8A5
:100B400008210123834093430BD0012303FA00F0D3
:100B5000054BC3F8000100207047012070470020BA
:100B600070470020704700BF00060E40FEE700BF40
:100B700008B51E4B1E4A9A4203D01E4B1B4A9A428E
:100B800004D31D4B1D4A9A420FD31AE017491C4B40
:100B90005B1A23F003030433154A134452F8040B81
:100BA00041F8040B9A42F9D1EBE7164B164AD21AD8
:100BB00022F003021A44043B002143F8041B934231
:100BC000FBD1124B23F0604222F07F0210498A6071
:100BD00003F16043B3F5801F03D28B6843F00053E9
:100BE0008B600C4B98470C4B9847FEE700000720A2
:100BF00090120800300407207C05072030040720ED
:100C00002F040720340407207F0507200000080078
:100C100000ED00E0691008004D0608003E4B1B6B1C
:100C200003F00303032B5FD8DFE803F0020E2B2B46
:100C30003A4B5B6913F0800F14BF4FF400424FF43E
:100C4000FA42374B1A604FE0334B1B6A13F0807F38
:100C500003D0344A324B1A6046E0334A304B1A60B4
:100C60002D4B1B6A03F07003102B02D0202B04D0F5
:100C70003AE02E4A2A4B1A6036E02A4A284B1A607C
:100C800032E0254B1B6A13F0807F03D0254A244BAA
:100C90001A6012E0244A224B1A601F4B1B6A03F0B1
:100CA0007003102B02D0202B04D006E01F4A1C4BEF
:100CB0001A6002E01B4A1A4B1A60174B1B6B03F0B9
:100CC0000303022B0DD1144A936A926A1448C3F3AA
:100CD0000A41036801FB0333D2B2B3FBF2F30360B2
:100CE00002E0134A0E4B1A600B4B1B6B03F07003B0
:100CF000702B07D10A4A13680E49A1FB03135B0846
:100D000013607047044B1B6B0549C3F302120B6859
:100D1000D3400B60704700BF00060E40101A0E4013
:100D200000000720001BB70000093D0000127A00F8
:100D3000001C4E0EABAAAAAA1B4B984206D8002351
:100D40001A4A136002F5007213607047184B9842FC
:100D500007D84FF48073154A136002F500721360D0
:100D60007047144B984207D84FF400730F4A136032
:100D700002F50072136070470F4B984207D84FF48A
:100D800040730A4A136002F50072136070470B4B00
:100D9000984294BF4FF480634FF4A063034A1360FA
:100DA00002F5007213607047BFEA2101000A0E408D
:100DB0007FF0FA02FF8FD003FFB3C4047F4A5D05C2
:100DC00080F0004002E000BF81F0004142001FBF00
:100DD0005FEA410392EA030F7FEA226C7FEA236C09
:100DE0006AD04FEA1262D2EB1363C1BFD2184140FE
:100DF00048404140B8BF5B42192B88BF704710F094
:100E0000004F40F4000020F07F4018BF404211F036
:100E1000004F41F4000121F07F4118BF494292EA9E
:100E2000030F3FD0A2F1010241FA03FC10EB0C00CA
:100E3000C3F1200301FA03F100F0004302D5494257
:100E400060EB4000B0F5000F13D3B0F1807F06D304
:100E500040084FEA310102F10102FE2A51D2B1F1FC
:100E6000004F40EBC25008BF20F0010040EA0300F1
:100E70007047490040EB000010F4000FA2F101029E
:100E8000EDD1B0FA80FCACF1080CB2EB0C0200FA28
:100E90000CF0AABF00EBC25052421843BCBFD04076
:100EA0001843704792F0000F81F4000106BF80F4F0
:100EB00000000132013BB5E74FEA41037FEA226CB3
:100EC00018BF7FEA236C21D092EA030F04D092F07E
:100ED000000F08BF0846704790EA010F1CBF0020B2
:100EE000704712F07F4F04D1400028BF40F000400F
:100EF000704712F100723CBF00F50000704700F02F
:100F0000004343F0FE4040F4000070477FEA226255
:100F100016BF08467FEA23630146420206BF5FEA26
:100F2000412390EA010F40F4800070474FF0000326
:100F300004E000BF10F0004348BF40425FEA000CED
:100F400008BF704743F0964301464FF000001CE095
:100F500050EA010208BF70474FF000030AE000BFEB
:100F600050EA010208BF704711F0004302D5404229
:100F700061EB41015FEA010C02BF8446014600209B
:100F800043F0B64308BFA3F18053A3F50003BCFAB6
:100F90008CF2083AA3EBC25310DB01FA02FC634463
:100FA00000FA02FCC2F12002BCF1004F20FA02F26A
:100FB00043EB020008BF20F00100704702F120025D
:100FC00001FA02FCC2F1200250EA4C0021FA02F2BE
:100FD00043EB020008BF20EADC7070474FEA400292
:100FE000B2F1FE4F0FD34FF09E03B3EB12620DD957
:100FF0004FEA002343F0004310F0004F23FA02F0C1
:1010000018BF404270474FF00000704712F1610F67
:1010100001D1420205D110F0004008BF6FF000403E
:1010200070474FF00000704742000ED2B2F1FE4F01
:101030000BD34FF09E03B3EB126209D44FEA0023A7
:1010400043F0004323FA02F070474FF0000070476E
:1010500012F1610F01D1420202D14FF0FF3070470F
:101060004FF00000704700BF70B50F4E0F4D761B5C
:10107000B61018BF002405D0013455F8043B98473A
:10108000A642F9D10A4E0B4D00F0F0F8761BB610CF
:1010900018BF002406D0013455F8043B9847A642F7
:1010A000F9D170BD70BD00BF781208007812080039
:1010B0008012080078120800024B13B1024800F0B9
:1010C00005B8704700000000D91008000023014651
:1010D0001A46184600F014B838B5074D074C2C1BBB
:1010E000A41005D0013C55F8043D9847002CF9D1D7
:1010F000BDE8384000F0C4B8901208008C12080017
:101100002DE9F047254C064625688846D5F8484124
:1011100092469946C4B360681F2817DC411C76B11B
:1011200004EB8003C3F888A0D4F8885101228240E0
:101130001543022EC4F88851C3F808911ED0831CB1
:101140006160002044F82380BDE8F087144B03B3AE
:101150004FF4C870AFF300800446D0B1D5F84831E1
:10116000002784E888003846C5F848410121C4F8C2
:101170008871C4F88C71002EE1D0D1E7D4F88C319D
:101180001A43C4F88C21DAE705F5A674C5F848417E
:10119000C1E74FF0FF30BDE8F08700BF68120800DC
:1011A00000000000FFFFFFFF6A3C00007C9BFFFF88
:1011B0005C50000057BDFFFF9919000024F5FFFFA8
:1011C00000000000FFFFFFFF96C3FFFF7C9BFFFFB7
:1011D000A4AFFFFF57BDFFFF67E6FFFF24F5FFFF4A
:1011E00000000000B400000000000000E2FDFFFF6E
:1011F000000000001E020000000000004CFFFFFF86
:1012000000000000FFFFFFFF2B9E000085E1FEFFB6
:10121000112901009945FFFF0643000024F5FFFF57
:1012200000000000B400000000000000E2FDFFFF2D
:10123000000000001E020000000000004CFFFFFF45
:1012400000000000B400000000000000E2FDFFFF0D
:10125000000000001E020000000000004CFFFFFF25
:10126000000000004300000008000720F8B500BFA0
:10127000F8BC08BC9E467047B91008001901080068
:10128000F8B500BFF8BC08BC9E467047F5000800E2
:1012900000093D000000000000000000F4020720EB
:1012A0005C030720C40307200000000000000000CA
:1012B000000000000000000000000000000000002E
:1012C00000000000000000000000000064120800A0
:1012D000000000000000000000000000000000000E
:1012E00000000000000000000000000000000000FE
:1012F00000000000000000000000000000000000EE
:1013000000000000000000000000000000000000DD
:1013100000000000000000000000000000000000CD
:1013200000000000000000000000000000000000BD
:1013300000000000000000000000000000000000AD
:1013400001000000000000000E33CDAB34126DE64A
:10135000ECDE05000B0000000000000000000000B3
:10136000000000000000000000000000000000007D
:10137000000000000000000000000000000000006D
:10138000000000000000000000000000000000005D
:10139000000000000000000000000000000000004D
:0400000380000B71FD
:00000001FF
