S00D00004C616232612E7372656375
S214080000C8240720C10B0800BD0B0800BD0B08005C
S214080010BD0B0800BD0B0800BD0B08000000000063
S214080020000000000000000000000000BD0B0800F3
S214080030BD0B080000000000BD0B0800BD0B080043
S214080040BD0B0800BD0B0800BD0B0800BD0B080063
S214080050BD0B0800BD0B0800BD0B0800BD0B080053
S214080060BD0B0800BD0B0800000000008909080049
S214080070A5090800C1090800DD09080000000000FD
S21408008000000000BD0B0800BD0B0800BD0B0800F3
S214080090BD0B0800BD0B0800BD0B0800BD0B080013
S2140800A0BD0B080000000000BD0B08002D0308006B
S2140800B0BD0B0800BD0B0800BD0B0800BD0B0800F3
S2140800C0BD0B0800BD0B0800BD0B0800BD0B0800E3
S2140800D0BD0B0800BD0B0800BD0B0800BD0B0800D3
S2140800E0BD0B0800BD0B0800BD0B0800BD0B0800C3
S2140800F0BD0B080008B50548054B191A062900D88F
S21408010008BD044A002AFBD09047F9E7E410080027
S214080110E71008000000000008B50748074B191A42
S2140801208A1002EBD273591000D108BD044A002A7F
S214080130FBD09047F9E700BFE4100800E410080079
S2140801400000000010B5064C237843B9FFF7D2FF2D
S214080150044810B10448AFF300800121217010BD97
S2140801603804072000000000E410080008B5084B13
S2140801701BB108480849AFF300800848016811B168
S214080180074A02B19047BDE80840FFF7C5BF00BF61
S21408019000000000E41008003C040720E4100800F3
S2140801A00000000038B54FF0250040F63933C0F29D
S2140801B0080398474FF00004C4F20C0420464FF496
S2140801C0F441C0F603214FF43452C0F231124FF016
S2140801D0000340F29125C0F20805A84720464FF0D4
S2140801E000010A460B4640F2F125C0F20805A8476A
S2140801F020464FF0000140F2D122C0F20802904794
S21408020020464FF00A0140F21933C0F20803984717
S21408021020464FF000010A4640F2E123C0F20803E8
S214080220984738BD38B54FF0260040F63933C0F247
S214080230080398474FF40044C4F20C04204640F2E2
S214080240BD31C0F20801884720464FF0000140F251
S214080250C532C0F20802904720464FF001010A4610
S2140802604FF0000340F20145C0F20805A8472046B3
S2140802704FF0000140F2E533C0F2080398472046E5
S2140802804FF0000140F23542C0F20802904738BDF0
S21408029030B44FF0010404604FF00004446040F2AC
S2140802A00225C0F82051C0F80441C0F8144145683A
S2140802B02B434FEA4202B1FBF2F101F1FF324FEA5B
S2140802C0026143EA11434360204630BC704700BFD2
S2140802D043684FEA011101F0100213434360704768
S2140802E0436819434FEAC212D3B2194341607047B4
S2140802F010B4446822434FEA016101F07064224357
S2140803004FEA037303F040510A43426010BC70473B
S2140803104FF00203036070474FF0010303FA01F140
S21408032001617047006A7047006B704730B583B04C
S2140803304FF00000C4F208004FF0000140F2894375
S214080340C0F2080398470190019B4FF48050C4F20E
S2140803500E004FF0806202634FF00000C4F20C00FB
S21408036040F21131C0F2080188474FF00004C4F289
S2140803700C0440F22935C0F208052046A84710F0BC
S214080380807FFAD04FF00000C4F20C0040F225330C
S214080390C0F20803984701464FF40040C4F20C0028
S2140803A040F2E132C0F2080290474FF48050C4F29F
S2140803B00E004FF08061416303B030BD4FF001037B
S2140803C00360704721B1426842F01003436003E0BF
S2140803D0436823F0100141604FF00000704700BFEB
S2140803E0016270474368012907D823F4981242EA45
S2140803F0014141604FF0000070474FF00100704720
S21408040010B4446824F07C5424F47F444FEA016115
S21408041044EA114412B144F4001401E024F4001430
S2140804204FEA036303F07C52144344604FF0000025
S21408043010BC7047012907D84FF0010303FA01F1F1
S21408044001614FF0000070474FF00100704700BF91
S21408045010B44FEA811143184FF0020444504FF08D
S214080460FF309862196A5A6010BC70474FEA8111CB
S2140804704FF005034350704700EB8111CA6170477F
S21408048000EB81114A62704700EB8111086A7047D9
S21408049010B54FF01B0040F63933C0F208039847F2
S2140804A04FF00004C4F2080420464FF000014FF451
S2140804B0804240F25143C0F20803984720464FF066
S2140804C0000141F2680240F27943C0F208039847F7
S2140804D04FF46140CEF200004FF000620260204602
S2140804E04FF000014FF0100240F28143C0F20803BB
S2140804F0984720464FF0000140F26D42C0F20802CD
S214080500904710BD08B540F26D53C0F208039847EF
S21408051040F2E550C0F2080080474FF00B0040F666
S2140805203934C0F20804A0474FF00C00A0474FF03B
S2140805300D00A0474FF00E00A0474FF48051C4F2BC
S2140805400E014FF080620A61C1F8A02040F2A513A0
S214080550C0F20803984740F22520C0F208008047FA
S21408056040F29144C0F20804A047FEE710B54FF4E5
S2140805703D40C0F2015040F6C163C0F208039847F8
S2140805804FF000004FF03E0140F69922C0F20802F4
S214080590904740F60934C0F20804A0470028FCD06B
S2140805A040F61930C0F2080080474FF4C061C4F224
S2140805B00E0143F60173C2F20D038B6240F629342E
S2140805C0C0F20804A0470028FCD04FF0100040F600
S2140805D0F912C0F20802904740F6F940C0F2080047
S2140805E0804710BD10B541F65023C4F20E034FF4F1
S2140805F000425A604FF00B0040F63934C0F2080447
S214080600A0474FF00C00A0474FF00D00A0474FF052
S2140806100E00A0474FF03B004FF0605140F26D745B
S214080620C0F20804A0474FF055004FF06051A047AD
S2140806304FF056004FF06051A0474FF068004FF05B
S2140806407901C2F60001A0474FF05C004FF00101A7
S214080650C2F60001A0474FF46060C4F20E004FF4E3
S21408066040714FF0006240F66D03C0F208039847E9
S2140806704FF02B004FF00061A0474FF02A004FF0D4
S2140806800061A04710BD00BF0AB141667047016609
S214080690704700BF4264B1F1805F16D004D8C9B174
S2140806A0B1F1006F15D109E0B1F1405F12D0B1F198
S2140806B0605F0FD0B1F1205F0BD17047036F016FF9
S2140806C00B4023EA0203036703E0036F42EA0301D1
S2140806D001674260704700BF41647047F8B504463A
S2140806E00D4616461F4640F2D963C0F208039847DF
S2140806F020462946069A40F28963C0F208039847BE
S2140807000FB1256500E065650EB1256300E06563F9
S21408071025612560F8BD00BF70B504460D4616462F
S21408072040F2D963C0F2080398472046294606F0E7
S214080730010240F28963C0F20803984716F00A0FD0
S21408074014BF2562656216F0020F02D0C4F8805006
S21408075004E016F0080F18BFC4F8805065612560DD
S21408076070BD00BFC06C7047806C7047F0B583B032
S2140807700D464FEA501606F5001101F207724FEAC9
S214080780422605F0F044B4F1205F42D006D8B4F112
S214080790006F0AD0B4F1805F64D120E0B4F1405F06
S2140807A046D0B4F1605F5DD142E000F01F074FF01D
S2140807B0010404FA07F730464FF000613A4640F263
S2140807C09563C0F2080398473046394605EA04029E
S2140807D040F28963C0F208039847204644E000F0D8
S2140807E01F004FF0010404FA00F730464FF080511E
S2140807F03A4640F29563C0F20803984730463946B1
S21408080005EA040240F28963C0F2080398472046C6
S2140808102AE000F01F024FF00104304604FA02F105
S2140808202A4640F21973C0F20803984720461BE090
S21408083000F01F024FF0010405F0605305EA0401BA
S2140808400091304604FA02F1B3F1605F14BF00224B
S2140808500122C5F3800340F2DD65C0F20805A8470B
S214080860204601E04FF0000003B0F0BDF0B583B0BD
S21408087007460E46154602F0F044B4F1205F36D01F
S21408088006D8B4F1006F0AD0B4F1805F4DD11AE0F3
S214080890B4F1405F33D0B4F1605F46D12FE04FF03B
S2140808A00061324640F29563C0F20803984738461E
S2140808B0314605F0010240F28963C0F20803984702
S2140808C04FF0010033E04FF08051324640F2956316
S2140808D0C0F2080398473846314605F0010240F250
S2140808E08963C0F2080398474FF001001FE040F202
S2140808F01973C0F2080398474FF0010017E005F097
S214080900605205F00100009038463146B2F1605F4B
S21408091014BF00220122C5F3800340F2DD64C0F252
S2140809200804A0474FF0010001E04FF0000003B0B4
S214080930F0BD00BFF8B504460E4640F26573C0F237
S214080940080398470546204640F26971C0F2080138
S2140809508847054014D00B4C274654F80C0CB04278
S2140809600AD154F8081C294206D022683046904717
S21408097054F8083C25EA030504F11004002DEBD1D1
S214080980F8BD00BF6004072008B54FF46060C4F2E5
S2140809900E004FF00B0140F63513C0F208039847D7
S2140809A008BD00BF08B54FF48050C4F20E004FF0E3
S2140809B00C0140F63513C0F20803984708BD00BF7F
S2140809C008B54FF49050C4F20E004FF00D0140F6F3
S2140809D03513C0F20803984708BD00BF08B54FF4A2
S2140809E0A050C4F20E004FF00E0140F63513C0F2C8
S2140809F00803984708BD00BF4FF4C063C4F20E034F
S214080A001A6B22F0700108431863986E10F0080FEE
S214080A1007D010E000F1FF33906E10F0080F38D0C2
S214080A2009E04FF400604FF4C062C4F20E02916E03
S214080A3011F0080FEED04FF4C061C4F20E010A6B35
S214080A4022F0030343F002000863896E11F0080FD2
S214080A5009D04FF00000704703F1FF33916E11F094
S214080A60080F13D009E04FF400634FF4C062C4F2D5
S214080A700E02906E10F0080FEED04FF00000704790
S214080A804FF0010070474FF001007047013BF0D16E
S214080A90F9E7581ECBD1F3E788B14FF4C061C4F22A
S214080AA00E01086A4FF6FC72CFF6C86202404FF095
S214080AB00203C0F2371342EA0300086270474FF495
S214080AC0C063C4F20E031A6A22F45C1020F0030214
S214080AD042F45C1040F001024FEA016142EA11401C
S214080AE018624FF4C062C4F20E02936E13F0010F40
S214080AF0FBD04FF4C061C4F20E01086A40F09B7246
S214080B0042F480330B6270474FF4C063C4F20E039E
S214080B10986E00F4803070474FF4C063C4F20E033A
S214080B204FF000529A6270474FF4C063C4F20E0347
S214080B30986E00F0020070472C2835D81F2817D862
S214080B404FF4C061C4F20E018A694FF0010303FA3C
S214080B5000F31A4093422AD04FF0010101FA00F040
S214080B604FF4C062C4F20E0210614FF000007047E6
S214080B704FF4C063C4F20E03D3F80821A0F1200096
S214080B804FF0010101FA00F10A40914212D04FF0ED
S214080B90010303FA00F04FF4C062C4F20E02C2F872
S214080BA000014FF0000070474FF0010070474FF00B
S214080BB0000070474FF00000704700BFFEE700BF18
S214080BC038B540F20003C2F2070341F2E402C0F26D
S214080BD008029A4203D040484049814204D3404B19
S214080BE0404A9A4225D342E03F4D404C631B23F0CF
S214080BF003054FF0000340F20002C2F2070241F27A
S214080C00E401C0F2080105F10400C5F380045D584C
S214080C109D5003F10403834255D1E0E75D589D508B
S214080C2003F104035C589C5003F104038342F5D196
S214080C30D5E72F4D2F49481B20F0030440F23843D0
S214080C40C2F20703E2184FF00001501BA0F104009F
S214080C50C0F3800445F8041F95422DD107E005F13E
S214080C600403696005F1080559609542F7D140F21A
S214080C700005C0F2080525F0604222F07F014FF417
S214080C806D40CEF20000816005F16044B4F5801F27
S214080C9007D24FF46D43CEF200039D6845F000522C
S214080CA09A6041F24D01C0F20801884740F20550AB
S214080CB0C0F208008047FEE7002CD0D045F8041F95
S214080CC09542CCD1D3E7002CA8D05C589C5003F1B1
S214080CD004038342A2D182E73804072000000720D5
S214080CE0C404072038040720040007203B04072014
S214080CF034040720BF0407204FF4C063C4F20E0371
S214080D00186B00F00301032900F2B180DFE801F058
S214080D1002144F4F41F61020C4F20E00416911F03C
S214080D20800F40F20003C2F2070314BF4FF40042DC
S214080D304FF4FA421A609AE04FF4C063C4F20E0306
S214080D40186A10F0807F09D04FF4D853C0F2B70362
S214080D5040F20002C2F20702136088E04FF4106106
S214080D60C0F23D0140F20002C2F2070211604FF4E1
S214080D70C063C4F20E03186A00F07001102902D08E
S214080D80202974D109E04FF49050C0F27A0040F25E
S214080D900001C2F20701086069E04FF4D853C0F2B8
S214080DA0B70340F20002C2F2070213605FE04FF496
S214080DB0C062C4F20E02136A13F0807F09D04FF4A3
S214080DC0D851C0F2B70140F20002C2F20702116021
S214080DD027E04FF41060C0F23D0040F20001C2F276
S214080DE0070108604FF4C062C4F20E02136A03F0EB
S214080DF07000102802D0202813D109E04FF4905331
S214080E00C0F27A0340F20000C2F20700036008E06E
S214080E104FF4D851C0F2B70140F20002C2F20702FE
S214080E2011604FF4C063C4F20E03186B00F00301A0
S214080E30022913D14FF4C061C4F20E01886A896A88
S214080E4040F20003C2F20703C0F30A401A6800FB28
S214080E500220C9B2B0FBF1F21A6008E04FF4E05382
S214080E60C0F64E6340F20002C2F2070213604FF467
S214080E70C062C4F20E02106B00F0700170290ED129
S214080E8040F20003C2F2070318684AF6AB22CAF615
S214080E90AA22A2FB00014FEA5100186070474FF4DF
S214080EA0C063C4F20E031A6B40F20000C2F20700D9
S214080EB0C2F30211036823FA01F30360704700BF08
S214080EC04EF6BF23C0F2211398420CD84FF4206385
S214080ED0C4F20E034FF0000018604FF44061C4F2ED
S214080EE00E01086070474FF27F01C0F2FA2188426F
S214080EF00CD84FF42060C4F20E004FF480710160E5
S214080F004FF44062C4F20E021160704748F6FF7351
S214080F10C0F2D03398420CD84FF42061C4F20E01C8
S214080F204FF400720A604FF44063C4F20E031A606E
S214080F3070474BF2FF31C0F2C44188420CD84FF4D8
S214080F402063C4F20E034FF440721A604FF44060F8
S214080F50C4F20E000260704744F67F23C0F25D5369
S214080F6098424FF42060C4F20E0094BF4FF480629B
S214080F704FF4A06202604FF44061C4F20E010A60AA
S214080F80704700BF2DE9F8439846234B06461C6871
S214080F900F46D4F84801914618B904F5A670C4F867
S214080FA0480141681F2916DD1C4818B94FF0FF3064
S214080FB0BDE8F8834FF4C870AFF300800028F5D07A
S214080FC0D4F84821002545600260C4F84801C0F8F6
S214080FD08851C0F88C51B6B14468012202FA04F26E
S214080FE0D0F8881100EB84031143022EC3F88890CA
S214080FF0C0F888111C46C3F8088104D1D0F88C3193
S2140810001A43C0F88C2141688B1C4A1C40F8237090
S21408101042600020BDE8F883B81008000000000011
S21408102070B5084B084C0025E01A841003EB8406BC
S214081030043D1CB172599047013CF9E7BDE8704081
S21408104000F048B8E0100800E410080038B50E4D67
S2140810500E4B0024E81A8510AC4205D00B4951F80F
S214081060242090470134F7E700F02AF80849094A8F
S214081070541AA5100024AC4205D0054B53F824009A
S21408108080470134F7E738BDCC100800CC100800BC
S214081090CC100800D4100800024B13B1024800F028
S2140810A005B870470000000021100800014600201F
S2140810B002460346FFF766BF1000072043000000FD
S2140810C0F8B500BFF8BC08BC9E46704799100800E3
S2140810D06D010800F8B500BFF8BC08BC9E4670470E
S2080810E045010800B1
S2140810E400093D0000000000100007200000000072
S2140810F400000000FC02072064030720CC03072036
S21408110400000000000000000000000000000000CE
S21408111400000000000000000000000000000000BE
S21408112400000000BC1008000000000000000000DA
S214081134000000000000000000000000000000009E
S214081144000000000000000000000000000000008E
S214081154000000000000000000000000000000007E
S214081164000000000000000000000000000000006E
S214081174000000000000000000000000000000005E
S214081184000000000000000000000000000000004E
S214081194000000000000000001000000000000003D
S2140811A40E33CDAB34126DE6ECDE05000B00000002
S2140811B4000000000000000000000000000000001E
S2140811C4000000000000000000000000000000000E
S2140811D400000000000000000000000000000000FE
S2140811E400000000000000000000000000000000EE
S804080BC127
