S014000050726F6A65637431343034622E737265630E
S21408000000250720A90A0800A50A0800A50A08006E
S214080010A50A0800A50A0800A50A080000000000AE
S214080020000000000000000000000000A50A08000C
S214080030A50A080000000000A50A0800A50A08008E
S214080040A50A0800A50A0800A50A0800A50A0800C7
S214080050A50A0800A50A0800A50A0800A50A0800B7
S214080060A50A0800A50A08000000000015090800EF
S214080070290908003D090800510908000000000089
S21408008000000000A50A0800A50A0800A50A08003E
S214080090A50A0800A50A0800A50A0800A50A080077
S2140800A0A50A080000000000A50A0800E5030800E5
S2140800B0A50A0800A50A0800A50A0800A50A080057
S2140800C0A50A0800A50A0800A50A0800A50A080047
S2140800D0A50A0800A50A0800A50A0800A50A080037
S2140800E0A50A0800A50A0800A50A0800A50A080027
S2140800F0A50A080010B5054C237833B9044B13B18C
S2140801000448AFF300800123237010BD3004072095
S214080110000000001C190800084B10B51BB1084960
S2140801200848AFF300800848036803B910BD074BBA
S214080130002BFBD0BDE81040184700BF00000000A9
S214080140340407201C1908001C19080000000000C9
S21408015038B52520124B9847124C0023124A1349EB
S2140801602046134DA84700231A4619462046114D27
S214080170A84700212046104B98470A2120460F4DD5
S214080180A84707212046A84706212046A847052154
S2140801902046A847002211462046094B984738BDF6
S2140801A0510A080000000C40002D3101007A030AAD
S2140801B0190208006D0208004D02080091020800A6
S2140801C05D02080038B526200C4B98470C4C204694
S2140801D00C4B9847002120460B4B984700230122DA
S2140801E011462046094DA84701212046084B984746
S2140801F001212046074B984738BD00BF510A080022
S21408020000800C407104080079040800AD0408005A
S21408021095040800DD04080030B4012404600025B5
S214080220456040F20224C0F82041C0F80451C0F8E6
S214080230145144685200B1FBF2F14A1E120292B2FF
S21408024023431A434260284630BC70474368090176
S21408025001F010010B434360704700BF4368D201AA
S214080260D2B2194311434160704700BF10B44468C6
S214080270090601F0706122430A431B0703F0405346
S2140802801343436010BC704702230360704700BFE7
S214080290012303FA01F10161704700BF0F299ABFD5
S2140802A0503050F821000020704700BF006B7047A0
S2140802B070B5204901F11C052B4653F8042D5A60E9
S2140802C08B42FAD11B4B43F804091B49002253F80A
S2140802D0040F51F8044F04FB00229D42F7D117493A
S2140802E0174801F11C03002451F8045F50F8046F06
S2140802F006FB05449942F7D1124853F8041D596085
S2140803008342FAD1104880FB0213D217C2EB23327D
S21408031080FB0430E417C4EB203010440B4B98479E
S21408032004460B4B9847054B58602046094B9847A0
S21408033070BD00BF6C040720CC1808004C040720CA
S214080340B018080050040720AD8BDB68411608007B
S214080350E91608003517080010B5B1F54D7F33D3F8
S214080360A1F54D7240F232339A4208D8174B984797
S2140803700022174B174CA047174B984710BDA1F201
S214080380676240F232339A4208D8104B98470022E8
S214080390124B104CA047104B984710BDA1F69A1266
S2140803A040F231339A4208D8084B984700220C4B43
S2140803B0084CA047084B984710BDA1F6CD4140F21F
S2140803C03133994201D910BD002010BD7D0F0800B9
S2140803D00000D03F691008008D1408000000E03FB8
S2140803E00000E83F70B582B000211648164B9847C3
S2140803F00190019B4FF08062144B1A631448154B0A
S2140804009847134D144C2846A04710F0807FFAD022
S2140804100F4D0A212846114CA047114B984706460F
S21408042005212846A047014630460E4B9847014608
S2140804300D480E4B98474FF08062044B5A6302B043
S21408044070BD00BF000008402105080000100E40DF
S21408045000000C4089020800AD0208009D02080052
S214080460B10208005903080000800C4091040800F7
S21408047001230360704700BF21B1436843F01003AF
S214080480436003E0436823F010034360002070478E
S214080490016270474368012906D823F4981343EA93
S2140804A001414160002070470120704710B444683D
S2140804B024F07C5424F47F44090289B20C4312B118
S2140804C044F4001401E024F400141B0603F07C53E3
S2140804D01C434460002010BC704700BF012905D8A3
S2140804E0012303FA01F101610020704701207047DB
S2140804F010B489014318022444504FF0FF31996222
S214080500196A5A6010BC7047890105234350704722
S21408051000EB8111CA61704700EB81114A6270478F
S21408052000EB8111086A704710B51B200E4B9847E0
S2140805300E4C4FF48042002120460D4B984740F65B
S2140805403402002120460B4B98474FF000620A4BB6
S2140805501A60102200212046084B984700212046A2
S214080560074B984710BD00BF510A08000000084016
S214080570F10408001105080000E100E0190508006C
S2140805800905080008B50D4B98470D4B98470B20F2
S2140805900C4CA0470C20A0470D20A0470E20A047D3
S2140805A0094B4FF080621A61C3F8A020074B9847A2
S2140805B0074B9847074B9847FEE700BFD905080042
S2140805C039060800510A080000100E4051010800BC
S2140805D0C50108002905080010B50D480D4B9847B9
S2140805E03E2100200C4B98470C4CA0470028FCD016
S2140805F00B4B98470B4A0C4B9A620C4CA0470028AA
S214080600FCD010200A4B98470A4B984710BD00BFED
S21408061000BD0105710C0800CD090800210A080074
S214080620310A0800013F0D2000060E40410A080066
S21408063065090800550B080010B54FF40042174B23
S2140806405A600B20164CA0470C20A0470D20A04748
S2140806500E20A0474FF060513B20124CA0474FF0A9
S21408066060515520A0474FF060515620A0470E49CC
S2140806706820A0470D495C20A0474FF000624FF461
S21408068040710B480B4B98474FF000612B20A04752
S2140806904FF000612A20A04710BD00BF501A0E4038
S2140806A0510A08005D0708007900002801000028A4
S2140806B0000E0E40310808004264B1F1805F16D083
S2140806C004D8C1B1B1F1006F0AD013E0B1F1405FB0
S2140806D011D0B1F1605F0ED0B1F1205F0AD170473A
S2140806E0016F036F0B4023EA0203036702E0036F00
S2140806F01343036742607047416412F0010F14BF4A
S2140807004166016612F00A0F14BF0162416212F0D8
S214080710020F02D0C0F8801004E012F0080F18BFCD
S214080720C0F8801041610160704700BF10B4416492
S214080730019C0CB1416600E001660BB1016500E062
S21408074041650AB1016300E041630161016010BCC4
S214080750704700BFC06C7047806C704770B582B039
S2140807600D46430903F5001303F207735C0201F014
S214080770F043B3F1205F30D006D8B3F1006F0AD04B
S214080780B3F1805F18D049E0B3F1405F30D0B3F1E1
S214080790605F2DD042E000F01F00012686403246FA
S2140807A04FF0006120461F4B984715F0010F14BF05
S2140807B066662666012032E000F01F0001268640A5
S2140807C032464FF080512046164B984715F0010FD9
S2140807D014BF66662666012021E000F01F01012688
S2140807E02A4606FA01F120460F4B9847304616E08F
S2140807F005F0605200F01F01012605EA0603009383
S214080800C5F38003B2F1605F14BF0022012206FA26
S21408081001F12046054CA047304600E0002002B013
S21408082070BD00BFB9060800F90608002D070800C5
S21408083070B582B005460E46144602F0F043B3F192
S214080840205F26D006D8B3F1006F0AD0B3F1805FD8
S21408085013D034E0B3F1405F1FD0B3F1605F1CD013
S2140808602DE00A464FF00061164B984714F0010F2A
S21408087014BF6E662E66012022E00A464FF08051AD
S214080880104B984714F0010F14BF6E662E660120B1
S21408089016E00D4B9847012012E004F0605204F071
S2140808A001030093C4F38003B2F1605F14BF002213
S2140808B0012231462846054CA047012000E00020CA
S2140808C002B070BDB9060800F90608002D07080032
S2140808D0F8B504460E460C4B9847054620460B4B83
S2140808E0984705400FD00A4C2368B34208D1616880
S2140808F0294205D0E36830469847636825EA030529
S2140809001034002DF0D1F8BD550708005907080027
S2140809108C04072008B50B210148024B984708BDF0
S214080920000E0E40D108080008B50C210148024BFD
S214080930984708BD00100E40D108080008B50D21DC
S2140809400148024B984708BD00120E40D10808001F
S21408095008B50E210148024B984708BD00140E4002
S214080960D1080800184A136B23F070031843106365
S214080970936E13F0080F03D009E0013B03D11EE085
S2140809804FF4006310498A6E12F0080FF5D00E4A2D
S214080990136B23F0030343F002031363906E10F007
S2140809A0080004D000207047013B03D109E04FF44B
S2140809B0006305498A6E12F0080FF5D070470120CB
S2140809C070470120704700BF00060E4038B1114935
S2140809D00B6A114A1A40114B13430B6270470D48B5
S2140809E0026A090289B222F45C1323F0030343F473
S2140809F05C1343F001030B4303620246936E13F045
S214080A00010FFBD0034A136A43F09B7343F4803309
S214080A101362704700060E40FCFFC8FE020037014E
S214080A20024B986E00F48030704700BF00060E40F8
S214080A304FF00052014B9A62704700BF00060E4006
S214080A40024B986E00F00200704700BF00060E408A
S214080A502C281ED81F280CD8114B9A6901238340CE
S214080A60934318D0012303FA00F00D4B18610020B9
S214080A70704720380A4BD3F8082101238340934354
S214080A800BD0012303FA00F0054BC3F80001002041
S214080A90704701207047002070470020704700BF4D
S214080AA000060E40FEE700BF08B51E4B1E4A9A42D7
S214080AB003D01E4B1B4A9A4204D31D4B1D4A9A422A
S214080AC00FD31AE017491C4B5B1A23F003030433B1
S214080AD0154A134452F8040B41F8040B9A42F9D10C
S214080AE0EBE7164B164AD21A22F003021A44043BC6
S214080AF0002143F8041B9342FBD1124B23F06042BB
S214080B0022F07F0210498A6003F16043B3F5801F24
S214080B1003D28B6843F000538B600C4B98470C4B02
S214080B209847FEE7000007201C1908003004072035
S214080B30FC040720300407202F040720340407206D
S214080B40FF0407200000080000ED00E07517080005
S214080B50850508003E4B1B6B03F00303032B5FD889
S214080B60DFE803F0020E2B2B3A4B5B6913F0800F7D
S214080B7014BF4FF400424FF4FA42374B1A604FE066
S214080B80334B1B6A13F0807F03D0344A324B1A600B
S214080B9046E0334A304B1A602D4B1B6A03F070034D
S214080BA0102B02D0202B04D03AE02E4A2A4B1A608B
S214080BB036E02A4A284B1A6032E0254B1B6A13F0A7
S214080BC0807F03D0254A244B1A6012E0244A224B21
S214080BD01A601F4B1B6A03F07003102B02D0202BE1
S214080BE004D006E01F4A1C4B1A6002E01B4A1A4B48
S214080BF01A60174B1B6B03F00303022B0DD1144A24
S214080C00936A926A1448C3F30A41036801FB0333E4
S214080C10D2B2B3FBF2F3036002E0134A0E4B1A603B
S214080C200B4B1B6B03F07003702B07D10A4A136833
S214080C300E49A1FB03135B0813607047044B1B6B3C
S214080C400549C3F302120B68D3400B60704700BF18
S214080C5000060E40101A0E4000000720001BB700C2
S214080C6000093D0000127A00001C4E0EABAAAAAA84
S214080C701B4B984206D800231A4A136002F50072E6
S214080C8013607047184B984207D84FF48073154A7C
S214080C90136002F5007213607047144B984207D829
S214080CA04FF400730F4A136002F500721360704722
S214080CB00F4B984207D84FF440730A4A136002F560
S214080CC00072136070470B4B984294BF4FF48063D2
S214080CD04FF4A063034A136002F50072136070476E
S214080CE0BFEA2101000A0E407FF0FA02FF8FD00308
S214080CF0FFB3C4047F4A5D0581F0004102E000BFEF
S214080D0083F0004330B54FEA41044FEA430594EABE
S214080D10050F08BF90EA020F1FBF54EA000C55EAF9
S214080D20020C7FEA645C7FEA655C00F0E2804FEACA
S214080D305454D4EB5555B8BF6D420CDD2C4480EAAC
S214080D40020281EA030382EA000083EA010180EADC
S214080D50020281EA0303362D88BF30BD11F0004F2A
S214080D604FEA01314FF4801C4CEA113102D0404260
S214080D7061EB410113F0004F4FEA03334CEA13339B
S214080D8002D0524263EB430394EA050F00F0A780B3
S214080D90A4F10104D5F1200E0DDB02FA0EFC22FAAE
S214080DA005F2801841F1000103FA0EF2801843FAA2
S214080DB005F359410EE0A5F120050EF1200E012A93
S214080DC003FA0EFC28BF4CF0020C43FA05F3C018D1
S214080DD051EBE37101F0004507D54FF0000EDCF14A
S214080DE0000C7EEB00006EEB0101B1F5801F1BD3F3
S214080DF0B1F5001F0CD349085FEA30004FEA3C0CF7
S214080E0004F101044FEA445212F5800F80F09A80EC
S214080E10BCF1004F08BF5FEA500C50F1000041EBF0
S214080E20045141EA050130BD5FEA4C0C404141EBF4
S214080E30010111F4801FA4F10104E9D191F0000F1B
S214080E4004BF01460020B1FA81F308BF2033A3F19E
S214080E500B03B3F120020CDA0C3208DD02F1140C95
S214080E60C2F10C0201FA0CF021FA02F10CE002F1D0
S214080E701402D8BFC2F1200C01FA02F120FA0CFCC9
S214080E80DCBF41EA0C019040E41AA2BF01EB045112
S214080E90294330BD6FEA04041F3C1CDA0C340EDC10
S214080EA004F11404C4F1200220FA04F001FA02F353
S214080EB040EA030021FA04F345EA030130BDC4F111
S214080EC00C04C4F1200220FA02F001FA04F340EA06
S214080ED00300294630BD21FA04F0294630BD94F0B7
S214080EE0000F83F4801306BF81F480110134013D9E
S214080EF04EE77FEA645C18BF7FEA655C29D094EA0F
S214080F00050F08BF90EA020F05D054EA000C04BF8C
S214080F101946104630BD91EA030F1EBF0021002077
S214080F2030BD5FEA545C05D14000494128BF41F016
S214080F30004130BD14F580043CBF01F5801130BD7A
S214080F4001F0004545F0FE4141F470014FF0000005
S214080F5030BD7FEA645C1ABF194610467FEA655CB6
S214080F601CBF0B46024650EA013406BF52EA033558
S214080F7091EA030F41F4002130BD00BF90F0000F46
S214080F8004BF0021704730B54FF4806404F1320482
S214080F904FF000054FF0000150E700BF90F0000F3B
S214080FA004BF0021704730B54FF4806404F1320462
S214080FB010F0004548BF40424FF000013EE700BF32
S214080FC042004FEAE2014FEA31014FEA02701FBFC2
S214080FD012F07F4393F07F4F81F06051704792F094
S214080FE0000F14BF93F07F4F704730B54FF460740E
S214080FF001F0004521F0004120E700BF50EA010259
S21408100008BF704730B54FF000050AE050EA010205
S21408101008BF704730B511F0004502D5404261EB75
S21408102041014FF4806404F132045FEA915C3FF4B6
S214081030DCAE4FF003025FEADC0C18BF03325FEA4F
S214081040DC0C18BF033202EBDC02C2F1200300FA04
S21408105003FC20FA02F001FA03FE40EA0E0021FA29
S21408106002F11444C1E600BF70B54FF0FF0C4CF413
S214081070E06C1CEA11541DBF1CEA135594EA0C0FC9
S21408108095EA0C0F00F0DEF82C4481EA030621EA04
S2140810904C5123EA4C5350EA013518BF52EA03353F
S2140810A041F4801143F4801338D0A0FB02CE4FF0F1
S2140810B00005E1FB02E506F00042E0FB03E54FF021
S2140810C00006E1FB03569CF0000F18BF4EF0010E19
S2140810D0A4F1FF04B6F5007F64F5407404D25FEA15
S2140810E04E0E6D4146EB060642EAC62141EA5551C8
S2140810F04FEAC52040EA5E504FEACE2EB4F1FD0C0A
S21408110088BFBCF5E06F1ED8BEF1004F08BF5FEA87
S214081110500E50F1000041EB045170BD06F0004639
S21408112046EA010140EA020081EA0301B4EB5C04E6
S214081130C2BFD4EB0C0541EA045170BD41F48011DE
S2140811404FF0000E013C00F3AB8014F1360FDEBF03
S214081150002001F0004170BDC4F10004203C35DADF
S2140811600C341BDC04F11404C4F1200500FA05F362
S21408117020FA04F001FA05F240EA020001F0004203
S21408118021F0004110EBD37021FA04F642EB060179
S2140811905EEA430E08BF20EAD37070BDC4F10C04A3
S2140811A0C4F1200500FA04F320FA05F001FA04F267
S2140811B040EA020001F0004110EBD37041F1000153
S2140811C05EEA430E08BF20EAD37070BDC4F120055E
S2140811D000FA05F24EEA020E20FA04F301FA05F2C6
S2140811E043EA020321FA04F001F0004121FA04F26E
S2140811F020EA020000EBD3705EEA430E08BF20EA3E
S214081200D37070BD94F0000F0FD101F00046400077
S21408121041EB010111F4801F08BF013CF7D041EAF9
S214081220060195F0000F18BF704703F000465200FD
S21408123043EB030313F4801F08BF013DF7D043EACE
S2140812400603704794EA0C0F0CEA135518BF95EA84
S2140812500C0F0CD050EA410618BF52EA4306D1D10B
S21408126081EA030101F000414FF0000070BD50EA2A
S214081270410606BF1046194652EA430619D094EAB4
S2140812800C0F02D150EA013613D195EA0C0F05D19E
S21408129052EA03361CBF104619460AD181EA0301F2
S2140812A001F0004141F0FE4141F470014FF00000AA
S2140812B070BD41F0FE4141F4780170BD70B54FF045
S2140812C0FF0C4CF4E06C1CEA11541DBF1CEA1355C5
S2140812D094EA0C0F95EA0C0F00F0A7F8A4EB0504A7
S2140812E081EA030E52EA03354FEA013100F088809E
S2140812F04FEA03334FF0805545EA131343EA126367
S2140813004FEA022245EA111545EA10654FEA00261B
S2140813100EF000419D4208BF964244F1FD0404F5D4
S214081320407402D25B084FEA3202B61A65EB030530
S2140813305B084FEA32024FF480104FF4002CB6EBED
S214081340020E75EB030E22BFB61A754640EA0C006D
S2140813505B084FEA3202B6EB020E75EB030E22BFAD
S214081360B61A754640EA5C005B084FEA3202B6EBEE
S214081370020E75EB030E22BFB61A754640EA9C00AD
S2140813805B084FEA3202B6EB020E75EB030E22BF7D
S214081390B61A754640EADC0055EA060E18D04FEA3B
S2140813A0051545EA16754FEA06164FEAC30343EADB
S2140813B052734FEAC2025FEA1C1CC0D111F4801FA8
S2140813C00BD141EA00014FF000004FF0004CB6E7A1
S2140813D011F4801F04BF01430020B4F1FD0C88BF40
S2140813E0BCF5E06F3FF6AFAEB5EB030C04BFB6EB4B
S2140813F0020C5FEA500C50F1000041EB045170BD3E
S2140814000EF0004E4EEA113114EB5C04C2BFD4EB6A
S2140814100C0541EA045170BD41F480114FF0000EEE
S214081420013C90E645EA060E8DE60CEA135594EA6A
S2140814300C0F08BF95EA0C0F3FF43BAF94EA0C0F6D
S2140814400AD150EA01347FF434AF95EA0C0F7FF4E2
S21408145025AF104619462CE795EA0C0F06D152EA36
S21408146003353FF4FDAE1046194622E750EA41061A
S21408147018BF52EA43067FF4C5AE50EA41047FF42B
S2140814800DAF52EA43057FF4EBAE12E74A0011D2DD
S21408149012F5001211D20DD56FF47873B3EB6252C1
S2140814A00ED44FEAC12343F0004343EA505323FACD
S2140814B002F070474FF00000704750EA013002D142
S2140814C04FF0FF3070474FF00000704780F0004044
S2140814D002E000BF81F0004142001FBF5FEA4103FF
S2140814E092EA030F7FEA226C7FEA236C6AD04FEAFF
S2140814F01262D2EB1363C1BFD21841404840414044
S214081500B8BF5B42192B88BF704710F0004F40F4F5
S214081510000020F07F4018BF404211F0004F41F411
S214081520000121F07F4118BF494292EA030F3FD0DD
S214081530A2F1010241FA03FC10EB0C00C3F12003F0
S21408154001FA03F100F0004302D5494260EB40007F
S214081550B0F5000F13D3B0F1807F06D340084FEAEA
S214081560310102F10102FE2A51D2B1F1004F40EBDF
S214081570C25008BF20F0010040EA03007047490047
S21408158040EB000010F4000FA2F10102EDD1B0FA12
S21408159080FCACF1080CB2EB0C0200FA0CF0AABF07
S2140815A000EBC25052421843BCBFD04018437047A5
S2140815B092F0000F81F4000106BF80F400000132AB
S2140815C0013BB5E74FEA41037FEA226C18BF7FEA82
S2140815D0236C21D092EA030F04D092F0000F08BFC4
S2140815E00846704790EA010F1CBF0020704712F0AB
S2140815F07F4F04D1400028BF40F00040704712F1EA
S21408160000723CBF00F50000704700F0004343F04E
S214081610FE4040F4000070477FEA226216BF084684
S2140816207FEA23630146420206BF5FEA412390EA47
S214081630010F40F4800070474FF0000304E000BF3D
S21408164010F0004348BF40425FEA000C08BF7047EE
S21408165043F0964301464FF000001CE050EA0102B2
S21408166008BF70474FF000030AE000BF50EA0102C7
S21408167008BF704711F0004302D5404261EB4101B4
S2140816805FEA010C02BF84460146002043F0B643D9
S21408169008BFA3F18053A3F50003BCFA8CF2083AFE
S2140816A0A3EBC25310DB01FA02FC634400FA02FC07
S2140816B0C2F12002BCF1004F20FA02F243EB02000E
S2140816C008BF20F00100704702F1200201FA02FC70
S2140816D0C2F1200250EA4C0021FA02F243EB020063
S2140816E008BF20EADC7070474FEA4002B2F1FE4FAE
S2140816F00FD34FF09E03B3EB12620DD94FEA0023C7
S21408170043F0004310F0004F23FA02F018BF40429F
S21408171070474FF00000704712F1610F01D1420286
S21408172005D110F0004008BF6FF0004070474FF03A
S2140817300000704742000ED2B2F1FE4F0BD34FF0B6
S2140817409E03B3EB126209D44FEA002343F000432A
S21408175023FA02F070474FF00000704712F1610F4D
S21408176001D1420202D14FF0FF3070474FF000001F
S214081770704700BF70B50F4E0F4D761BB61018BFDA
S214081780002405D0013455F8043B9847A642F9D101
S2140817900A4E0B4D00F0B0F8761BB61018BF0024A2
S2140817A006D0013455F8043B9847A642F9D170BDD7
S2140817B070BD00BF04190800041908000C190800B9
S2140817C004190800024B13B1024800F005B8704728
S2140817D000000000E5170800002301461A461846D0
S2140817E000F014B838B5074D074C2C1BA41005D0CC
S2140817F0013C55F8043D9847002CF9D1BDE838401F
S21408180000F084B81C190800181908002DE9F047DC
S214081810254C064625688846D5F848419246994696
S214081820C4B360681F2817DC411C76B104EB80033C
S214081830C3F888A0D4F88851012282401543022EA6
S214081840C4F88851C3F808911ED0831C6160002034
S21408185044F82380BDE8F087144B03B34FF4C870F0
S214081860AFF300800446D0B1D5F84831002784E8A5
S21408187088003846C5F848410121C4F88871C4F87C
S2140818808C71002EE1D0D1E7D4F88C311A43C4F815
S2140818908C21DAE705F5A674C5F84841C1E74FF08C
S2140818A0FF30BDE8F08700BFF4180800000000000D
S2140818B0FFFFFFFF96C3FFFF7C9BFFFFA4AFFFFF62
S2140818C057BDFFFF67E6FFFF24F5FFFF0000000097
S2140818D0B400000000000000E2FDFFFF000000006A
S2140818E01E020000000000004CFFFFFF0000000082
S2140818F04300000008000720F8B500BFF8BC08BC85
S2140819009E467047C517080019010800F8B500BFBD
S210081910F8BC08BC9E467047F5000800AE
S21408191C00093D000000000000000000F40207204B
S21408192C5C030720C403072000000000000000002A
S21408193C000000000000000000000000000000008E
S21408194C000000000000000000000000F01808006E
S21408195C000000000000000000000000000000006E
S21408196C000000000000000000000000000000005E
S21408197C000000000000000000000000000000004E
S21408198C000000000000000000000000000000003E
S21408199C000000000000000000000000000000002E
S2140819AC000000000000000000000000000000001E
S2140819BC000000000000000000000000000000000E
S2140819CC01000000000000000E33CDAB34126DE6AB
S2140819DCECDE05000B000000000000000000000014
S2140819EC00000000000000000000000000000000DE
S2140819FC00000000000000000000000000000000CE
S214081A0C00000000000000000000000000000000BD
S214081A1C00000000000000000000000000000000AD
S804080AA940
